:100000000C943C000C9459000C9459000C948302FD
:100010000C9459000C9459000C94E2010C94590072
:100020000C9459000C9459000C9459000C949801AC
:100030000C9459000C94B5010C9459000C9459007F
:100040000C9459000C9459000C9459000C945900CC
:100050000C9459000C9459000C9459000C945900BC
:100060000C9459000C9459000C9459000C945900AC
:100070000C9459000C94590011241FBECFEFCDBF32
:10008000DFE3DEBF18E3A0E0B8E3E0E9FBE002C095
:1000900005900D92AA30B107D9F728E3AAE0B8E39A
:1000A00001C01D92A731B207E1F70E9481010C94B3
:1000B000C6050C940000CF93DF93EC018989288159
:1000C000829F90011124032E000C440B550B6D856B
:1000D0007E858F8598890E948304215031092A8B5F
:1000E0003B8BDF91CF9108958F929F92AF92BF92F9
:1000F000CF92DF92EF92FF92CF93DF93EC016D8569
:100100007E858F8598890E9464034B015C01698913
:1001100070E080E090E00E9466036B017C01298121
:100120003A814B815C81C501B4010E941604A7018C
:1001300096010E94C3020E9435036E8B7F8B298536
:100140003A854B855C85C501B4010E941604A70160
:1001500096010E94C3020E9435036C8B7D8B2D811A
:100160003E814F815885C501B4010E941604A70144
:1001700096010E94C3020E943503688F798FDF9138
:10018000CF91FF90EF90DF90CF90BF90AF909F9076
:100190008F900895CF92DF92EF92FF921F93CF93AB
:1001A000DF936B017C01142F8CE190E00E94A50489
:1001B000EC01892B09F4FFCFCD86DE86EF86F88A25
:1001C000198B82E388838FE692E1A3E0BBE3898702
:1001D0009A87AB87BC8786EA9BE9A4ECBAE389835C
:1001E0009A83AB83BC838FE692E1A3E8BAE38D8365
:1001F0009E83AF83B887CE010E945B00CE010E9430
:100200007400CE01DF91CF911F91FF90EF90DF90AE
:10021000CF900895FC01628F738F6093280A7093CA
:10022000290A089588ED20E830E084BF209360001B
:1002300021E130E084BF209361000895E0E2F4E022
:1002400081E08083808180688083E0E0F4E082E068
:10025000808380818260808383E0828B0895E0EEDA
:10026000F5E084818483E0E0FAE081818363818327
:1002700080818860808382858062828780818160BE
:100280008083A0911138B091123852968D919C9133
:10029000539786A397A356968D919C91579780AFBD
:1002A00091AF52968D919C91539782AF93AF0895E1
:1002B00010924701E0E4F1E0818182FDFDCFE0E4AE
:1002C000F1E080E090E88287938781E082838081FB
:1002D00082FDFDCF80E8809340010895E0E8FAE0D8
:1002E00081E190E0848795878FEF9FEF82879387E6
:1002F0008081826080838181818385818160858323
:100300000895789440E165ED7CED82E390E00E94F1
:10031000CA0080931138909312380E9412010E94F3
:100320001E010E9458010E946E010E942F01FFCF02
:100330001F920F920FB60F9211248F93EF93FF939A
:1003400080E280930B0AE0E0F4E0848182608483A1
:10035000E0E8FAE0808181608083FF91EF918F91E6
:100360000F900FBE0F901F9018951F920F920FB60F
:100370000F9211248F93EF93FF938091860A80FF51
:1003800019C081E08093860A80911038811112C0D3
:10039000E0E0F4E0868182608683E0E8FAE0808134
:1003A0008E7F808381E080931038E0E4F1E08081EB
:1003B00081608083FF91EF918F910F900FBE0F901E
:1003C0001F9018951F920F920FB60F921124CF9283
:1003D000DF92EF92FF922F933F934F935F936F9330
:1003E0007F938F939F93AF93BF93EF93FF938091EE
:1003F000090482FF73C080911038882309F46BC010
:100400008091080482FD67C0809148019091490164
:1004100080930E3890930F3860910E3870910F389A
:1004200080E090E00E9464032FE632E143E052E472
:100430000E94C3020E94350360930E3870930F38F8
:1004400080910E3890910F38892B09F442C0609149
:100450000E3870910F38C0900638D0900738E09071
:100460000838F090093880E090E00E946403A7010A
:1004700096010E94160420E030E040E05FE30E9415
:10048000160460930A3870930B3880930C3890935D
:100490000D3860910A3870910B3880910C3890912A
:1004A0000D3820E030E040E250E40E94BE02882394
:1004B0004CF48091113890911238FC01648975894F
:1004C0000E940A01E0E4F1E080818D7F8083108644
:1004D00011861092103884E080930904FF91EF9107
:1004E000BF91AF919F918F917F916F915F914F914C
:1004F0003F912F91FF90EF90DF90CF900F900FBE24
:100500000F901F9018951F920F920FB60F92112403
:100510002F933F934F935F936F937F938F939F930B
:10052000AF93BF93CF93DF93EF93FF9380914301FA
:10053000C0E4D1E08B838091113890911238FC0196
:10054000668977890E940A011092103888818D7F10
:10055000888318861986FF91EF91DF91CF91BF9123
:10056000AF919F918F917F916F915F914F913F914B
:100570002F910F900FBE0F901F9018950E94A1030E
:1005800008F481E008950E94D7020C94DC030E94D5
:10059000D50358F00E94CE0340F029F45F3F29F0C4
:1005A0000C94C50351110C9410040C94CB030E94BD
:1005B000ED0368F39923B1F3552391F3951B550B84
:1005C000BB27AA2762177307840738F09F5F5F4F26
:1005D000220F331F441FAA1FA9F335D00E2E3AF065
:1005E000E0E832D091505040E695001CCAF72BD07D
:1005F000FE2F29D0660F771F881FBB1F26173707CE
:100600004807AB07B0E809F0BB0B802DBF01FF27FF
:1006100093585F4F3AF09E3F510578F00C94C50314
:100620000C9410045F3FE4F3983ED4F386957795DD
:100630006795B795F7959F5FC9F7880F911D9695B8
:10064000879597F90895E1E0660F771F881FBB1F14
:10065000621773078407BA0720F0621B730B840BC1
:10066000BA0BEE1F88F7E09508950E94F50388F015
:100670009F5798F0B92F9927B751B0F0E1F0660F66
:10068000771F881F991F1AF0BA95C9F714C0B130A7
:1006900091F00E940F04B1E008950C940F04672FAD
:1006A000782F8827B85F39F0B93FCCF386957795D6
:1006B0006795B395D9F73EF49095809570956195BF
:1006C0007F4F8F4F9F4F0895E89409C097FB3EF4EA
:1006D00090958095709561957F4F8F4F9F4F99238F
:1006E000A9F0F92F96E9BB279395F695879577950D
:1006F0006795B795F111F8CFFAF4BB0F11F460FFCD
:100700001BC06F5F7F4F8F4F9F4F16C0882311F024
:1007100096E911C0772321F09EE8872F762F05C038
:10072000662371F096E8862F70E060E02AF09A95D3
:10073000660F771F881FDAF7880F9695879597F9C8
:100740000895990F0008550FAA0BE0E8FEEF161662
:100750001706E807F907C0F012161306E407F507B5
:1007600098F0621B730B840B950B39F40A2661F029
:10077000232B242B252B21F408950A2609F4A140CC
:10078000A6958FEF811D811D089597F99F6780E8D9
:1007900070E060E008959FEF80EC089500240A94D3
:1007A0001616170618060906089500240A9412164C
:1007B0001306140605060895092E0394000C11F47F
:1007C000882352F0BB0F40F4BF2B11F460FF04C02C
:1007D0006F5F7F4F8F4F9F4F089557FD9058440F85
:1007E000551F59F05F3F71F04795880F97FB991F90
:1007F00061F09F3F79F0879508951216130614064D
:10080000551FF2CF4695F1DF08C0161617061806D9
:10081000991FF1CF86957105610508940895E894B4
:10082000BB2766277727CB0197F908950E942904F3
:100830000C94DC030E94CE0338F00E94D50320F014
:10084000952311F00C94C5030C94CB0311240C9444
:1008500010040E94ED0370F3959FC1F3950F50E0D3
:10086000551F629FF001729FBB27F00DB11D639F62
:10087000AA27F00DB11DAA1F649F6627B00DA11D08
:10088000661F829F2227B00DA11D621F739FB00DAE
:10089000A11D621F839FA00D611D221F749F33271E
:1008A000A00D611D231F849F600D211D822F762FB7
:1008B0006A2F11249F5750409AF0F1F088234AF094
:1008C000EE0FFF1FBB1F661F771F881F9150504000
:1008D000A9F79E3F510580F00C94C5030C941004B9
:1008E0005F3FE4F3983ED4F3869577956795B79587
:1008F000F795E7959F5FC1F7FE2B880F911D9695A1
:10090000879597F90895A1E21A2EAA1BBB1BFD013A
:100910000DC0AA1FBB1FEE1FFF1FA217B307E407DE
:10092000F50720F0A21BB30BE40BF50B661F771F36
:10093000881F991F1A9469F7609570958095909516
:100940009B01AC01BD01CF0108950F931F93CF937D
:10095000DF938230910510F482E090E0E091153849
:10096000F091163820E030E0A0E0B0E0309719F1C7
:10097000408151810281138148175907C8F08417BB
:10098000950769F4109731F012960C93129713960D
:100990001C9327C0009315381093163822C02115D8
:1009A000310519F04217530718F49A01BD01EF0100
:1009B000DF01F801DBCF21153105F9F0281B390BD8
:1009C0002430310580F48A819B816115710521F005
:1009D000FB018283938304C080931538909316386B
:1009E000FE01329644C0FE01E20FF31F8193919302
:1009F00022503109288339833AC02091133830912D
:100A00001438232B41F4209102383091033820937D
:100A10001338309314382091003830910138211563
:100A2000310541F42DB73EB7409104385091053857
:100A3000241B350BE0911338F0911438E217F307BB
:100A4000A0F42E1B3F0B2817390778F0AC014E5F3E
:100A50005F4F2417350748F04E0F5F1F4093133840
:100A6000509314388193919302C0E0E0F0E0CF01FD
:100A7000DF91CF911F910F910895CF93DF9300974E
:100A800009F481C0FC01329712821382A0911538BB
:100A9000B0911638109781F420813181820F931F15
:100AA00020911338309114382817390751F5E09305
:100AB0001338F093143867C0ED0120E030E0CE1712
:100AC000DF0740F44A815B819E0141155105F1F039
:100AD000EA01F5CFC283D38340815181840F951FF2
:100AE000C817D90759F488819981840F951F0296F8
:100AF000808391838A819B81828393832115310531
:100B000029F4E0931538F09316383DC0E901EA83E3
:100B1000FB8349915991C40FD51FEC17FD0761F470
:100B200080819181840F951F0296E90188839983C2
:100B3000828193818A839B83E0E0F0E012968D911D
:100B40009C911397009719F0FD01DC01F7CF8D916F
:100B50009C9111979D012E5F3F4F820F931F209113
:100B60001338309114382817390769F4309729F46D
:100B7000109215381092163802C012821382A09378
:100B80001338B0931438DF91CF910895F894FFCFC4
:0A0B90000000173820004E62B03E4E
:00000001FF
