:100000000C943C000C9459000C9459000C9444023C
:100010000C9459000C9459000C9478010C945900DC
:100020000C9459000C9459000C9459000C94D9006C
:100030000C9459000C942A010C9459000C9459000A
:100040000C9459000C9459000C9459000C945900CC
:100050000C9459000C9459000C9459000C945900BC
:100060000C9459000C9459000C9459000C945900AC
:100070000C9459000C94590011241FBECFEFCDBF32
:10008000DFE3DEBF18E3A0E0B8E3E9E5F6E102C094
:1000900005900D92A431B107D9F728E3A4E1B8E3A4
:1000A00001C01D92A232B207E1F70E9450040C94E5
:1000B000660A0C94000088ED20E830E084BF2093AD
:1000C000600021E130E084BF209361000895E0E208
:1000D000F4E081E08083808180688083A0E0B4E0E8
:1000E00082E08C938C9182608C9383E052968C9307
:1000F0008081846080838081877F80830895E0EEA3
:10010000F5E084818483E0E0FAE081818363818388
:10011000808188608083828580628287808181601F
:100120008083A0911638B091173852968D919C918A
:10013000539786A397A356968D919C91579780AF1E
:1001400091AF52968D919C91539782AF93AF089542
:10015000109247018091410182FDFCCF80E090E840
:1001600080934A0190934B0181E0809342018091FA
:10017000400182FDFCCF80E8809340010895A0916A
:100180001438B091153818968C91189790E0E0E8E3
:10019000FAE08487958718968C9190E08287938700
:1001A0008081826080838181818385818160858374
:1001B00008951F920F920FB60F9211242F933F9321
:1001C0004F935F936F937F938F939F93AF93BF935F
:1001D000EF93FF9380E280930B0A8DED94E90E94E8
:1001E00074038DEF94E90E947403E0911438F09148
:1001F000153880810E94800389E395E90E94740389
:10020000E0911438F09115388081811112C08091ED
:10021000800A81FD0EC080910404826080930404F2
:100220008091800A81608093800A8EE195E90E9426
:100230007403FF91EF91BF91AF919F918F917F9147
:100240006F915F914F913F912F910F900FBE0F9043
:100250001F9018951F920F920FB60F9211242F9393
:100260003F934F935F936F937F938F939F93AF933E
:10027000BF93EF93FF938BE395E90E947403809102
:10028000860A80FF24C083E595E90E94740381E01B
:100290008093860A80910604826080930604809190
:1002A000800A8E7F8093800A80E895E90E9474031B
:1002B00080911438909115380E9419048091400162
:1002C00081608093400182EA95E90E947403FF9166
:1002D000EF91BF91AF919F918F917F916F915F91BE
:1002E0004F913F912F910F900FBE0F901F90189537
:1002F0001F920F920FB60F9211242F933F934F939B
:100300005F936F937F938F939F93AF93BF93CF939D
:10031000DF93EF93FF938091090482FFA2C0C09105
:100320001438D09115388881882309F497C08091BA
:10033000080482FD93C0609148017091490180E0FA
:1003400090E00E9442052FE632E143E052E40E9431
:10035000A1040E941305CE010E942004809114384C
:1003600090911538FC0122813381232B09F46BC055
:100370000E942404C0911438D09115388D859E8533
:10038000009791F420E030E040E250E46C817D8100
:100390008E819F810E949C0487FF4CC061E070E0C9
:1003A000CE010E94400441C0019709F043C0E09192
:1003B0001638F0911738828D938D26893789648994
:1003C00075898217930711F4CF012DC086179707FF
:1003D00079F44C815D816E817F81CE010E9444045D
:1003E0008091163890911738FC01608D718D1BC07B
:1003F000208D318D82179307C1F44C815D816E8110
:100400007F81CE010E944A0462E070E0809114383E
:10041000909115380E9440048091163890911738B9
:10042000FC01668977890E944B03E0911438F091B2
:1004300015381082809140018D7F80934001109289
:100440004801109249018091143890911538FC01AF
:1004500025853685232B11F40E94010484E08093C6
:100460000904FF91EF91DF91CF91BF91AF919F91DF
:100470008F917F916F915F914F913F912F910F904D
:100480000FBE0F901F9018951F920F920FB60F92EC
:1004900011242F933F934F935F936F937F938F9389
:1004A0009F93AF93BF93EF93FF9381ED95E90E94E4
:1004B0007403809143018093430180911638909199
:1004C0001738FC01668977890E944B0388EE95E90D
:1004D0000E947403E0911438F09115388585968553
:1004E000892B51F486E096E90E94740380911438B8
:1004F000909115380E94010489E396E90E947403E3
:10050000809140018D7F80934001109248011092AC
:100510004901FF91EF91BF91AF919F918F917F9191
:100520006F915F914F913F912F910F900FBE0F9060
:100530001F9018950C94F906CF93DF93EC018989ED
:100540002881829F90011124032E000C440B550B2F
:100550006D857E858F8598890E947A0421503109A6
:100560002A8B3B8BDF91CF9108958F929F92AF9210
:10057000BF92CF92DF92EF92FF92CF93DF93EC0185
:100580006D857E858F8598890E9442054B015C01AF
:10059000698970E080E090E00E9444056B017C0175
:1005A00029813A814B815C81C501B4010E94F40527
:1005B000A70196010E94A1040E9413056E8B7F8BF8
:1005C00029853A854B855C85C501B4010E94F405F7
:1005D000A70196010E94A1040E9413056C8B7D8BDC
:1005E0002D813E814F815885C501B4010E94F405DB
:1005F000A70196010E94A1040E941305688F798FBC
:10060000DF91CF91FF90EF90DF90CF90BF90AF90B0
:100610009F908F900895CF92DF92EF92FF921F9359
:10062000CF93DF936B017C01142F8CE190E00E944B
:100630006106EC01892B09F4FFCFCD86DE86EF86BB
:10064000F88A198B82E388838FE692E1A3E0BBE30B
:1006500089879A87AB87BC8786EA9BE9A4ECBAE3D3
:1006600089839A83AB83BC838FE692E1A3E8BAE3E4
:100670008D839E83AF83B887CE010E949C02CE01FA
:100680000E94B502CE01DF91CF911F91FF90EF90B4
:10069000DF90CF900895FC01628F738F6093280ADA
:1006A0007093290A08959091040895FFFCCF8093D8
:1006B000020880E090E00895E0E0F8E080E88583BB
:1006C0008681806C868380E098E380931E389093C7
:1006D0001F3808958DE695E08093080890930908E7
:1006E0000895809100080895FC019191992339F0B3
:1006F0008091040885FFFCCF90930208F6CF0895FF
:100700000F931F93CF93DF9300D000D0CDB7DEB708
:100710001F928F9386E596E99F938F938E010F5FCB
:100720001F4F1F930F930E948207C8010E947403FA
:100730000F900F900F900F900F900F902496CDBFB9
:10074000DEBFDF91CF911F910F9108950F931F93FB
:10075000CF93DF93CDB7DEB72697CDBFDEBF9F9394
:100760008F9386E596E99F938F938E010F5F1F4FBE
:100770001F930F930E948207C8010E9474030F9079
:100780000F900F900F900F900F902696CDBFDEBF69
:10079000DF91CF911F910F910895CF92DF92EF9249
:1007A000FF92CF93C82F6A017B0187E190E00E94FE
:1007B0006106FC01892B09F4FFCF1182128213829A
:1007C000108280E090E0AFE7B3E484839583A68352
:1007D000B783C087C186D286E386F48615861686DF
:1007E0001786108A118A128A138A148A158A168A21
:1007F000CF01CF91FF90EF90DF90CF9008950C94B0
:10080000F906FC01118212821382108280E090E0CE
:10081000AFE7B3E484839583A683B78315861686F2
:100820001786108A118A128A138A148A158A168AE0
:100830000895FC0181E08083118212821382089561
:10084000FC01628373830895CF93DF93EC016A8187
:100850007B8180E090E00E94420529853A854B85A6
:100860005C850E94F40520E030E040E05FE30E94F8
:10087000F4056C837D838E839F83DF91CF910895F0
:10088000FC01658776870895FC014787508B618B53
:10089000728B0895FC01438B548B658B768B089586
:1008A000789440E165ED7CED82E390E00E940B03DB
:1008B00080931638909317384EE452E660EB7EE34F
:1008C00081E10E94CD0380931438909315380E94E3
:1008D0005B000E9467000E946A030E945C030E9402
:1008E000A8000E94BF000E947F0080ED94E90E9452
:1008F0007403FBCFA1E21A2EAA1BBB1BFD010DC086
:10090000AA1FBB1FEE1FFF1FA217B307E407F507BF
:1009100020F0A21BB30BE40BF50B661F771F881F9B
:10092000991F1A9469F760957095809590959B0131
:10093000AC01BD01CF0108950E947F0508F481E05C
:1009400008950E94B5040C94BA050E94B30558F0AE
:100950000E94AC0540F029F45F3F29F00C94A305F8
:1009600051110C94EE050C94A9050E94CB0568F377
:100970009923B1F3552391F3951B550BBB27AA2758
:1009800062177307840738F09F5F5F4F220F331F92
:10099000441FAA1FA9F335D00E2E3AF0E0E832D05A
:1009A00091505040E695001CCAF72BD0FE2F29D05D
:1009B000660F771F881FBB1F261737074807AB072F
:1009C000B0E809F0BB0B802DBF01FF2793585F4FA4
:1009D0003AF09E3F510578F00C94A3050C94EE0577
:1009E0005F3FE4F3983ED4F3869577956795B79586
:1009F000F7959F5FC9F7880F911D9695879597F991
:100A00000895E1E0660F771F881FBB1F6217730709
:100A10008407BA0720F0621B730B840BBA0BEE1F1E
:100A200088F7E09508950E94D30588F09F5798F0C5
:100A3000B92F9927B751B0F0E1F0660F771F881FE3
:100A4000991F1AF0BA95C9F714C0B13091F00E94FD
:100A5000ED05B1E008950C94ED05672F782F8827F8
:100A6000B85F39F0B93FCCF3869577956795B39524
:100A7000D9F73EF490958095709561957F4F8F4F93
:100A80009F4F0895E89409C097FB3EF49095809598
:100A9000709561957F4F8F4F9F4F9923A9F0F92F44
:100AA00096E9BB279395F695879577956795B795C2
:100AB000F111F8CFFAF4BB0F11F460FF1BC06F5FA8
:100AC0007F4F8F4F9F4F16C0882311F096E911C0BA
:100AD000772321F09EE8872F762F05C0662371F0DB
:100AE00096E8862F70E060E02AF09A95660F771FEF
:100AF000881FDAF7880F9695879597F90895990FCB
:100B00000008550FAA0BE0E8FEEF16161706E807D7
:100B1000F907C0F012161306E407F50798F0621BF8
:100B2000730B840B950B39F40A2661F0232B242BCD
:100B3000252B21F408950A2609F4A140A6958FEFEC
:100B4000811D811D089597F99F6780E870E060E03E
:100B500008959FEF80EC089500240A941616170656
:100B600018060906089500240A941216130614069E
:100B700005060895092E0394000C11F4882352F001
:100B8000BB0F40F4BF2B11F460FF04C06F5F7F4FB9
:100B90008F4F9F4F089557FD9058440F551F59F0A0
:100BA0005F3F71F04795880F97FB991F61F09F3F5A
:100BB00079F087950895121613061406551FF2CF83
:100BC0004695F1DF08C0161617061806991FF1CFD3
:100BD00086957105610508940895E894BB276627FA
:100BE0007727CB0197F908950E9407060C94BA0560
:100BF0000E94AC0538F00E94B30520F0952311F057
:100C00000C94A3050C94A90511240C94EE050E94E4
:100C1000CB0570F3959FC1F3950F50E0551F629F70
:100C2000F001729FBB27F00DB11D639FAA27F00D45
:100C3000B11DAA1F649F6627B00DA11D661F829F6C
:100C40002227B00DA11D621F739FB00DA11D621F51
:100C5000839FA00D611D221F749F3327A00D611D6E
:100C6000231F849F600D211D822F762F6A2F112450
:100C70009F5750409AF0F1F088234AF0EE0FFF1F83
:100C8000BB1F661F771F881F91505040A9F79E3FDA
:100C9000510580F00C94A3050C94EE055F3FE4F33E
:100CA000983ED4F3869577956795B795F795E79530
:100CB0009F5FC1F7FE2B880F911D9695879597F939
:100CC00008950F931F93CF93DF938230910510F413
:100CD00082E090E0E0911A38F0911B3820E030E09B
:100CE000A0E0B0E0309719F1408151810281138179
:100CF00048175907C8F08417950769F4109731F021
:100D000012960C93129713961C9327C000931A38CF
:100D100010931B3822C02115310519F042175307D3
:100D200018F49A01BD01EF01DF01F801DBCF2115B5
:100D30003105F9F0281B390B2430310580F48A8104
:100D40009B816115710521F0FB018283938304C0AF
:100D500080931A3890931B38FE01329644C0FE01EE
:100D6000E20FF31F81939193225031092883398335
:100D70003AC02091183830911938232B41F4209132
:100D80001038309111382093183830931938209149
:100D90000E3830910F382115310541F42DB73EB78B
:100DA0004091123850911338241B350BE0911838BC
:100DB000F0911938E217F307A0F42E1B3F0B281708
:100DC000390778F0AC014E5F5F4F2417350748F0C4
:100DD0004E0F5F1F409318385093193881939193A9
:100DE00002C0E0E0F0E0CF01DF91CF911F910F91C1
:100DF0000895CF93DF93009709F481C0FC013297E7
:100E000012821382A0911A38B0911B38109781F486
:100E100020813181820F931F209118383091193829
:100E20002817390751F5E0931838F093193867C03F
:100E3000ED0120E030E0CE17DF0740F44A815B810E
:100E40009E0141155105F1F0EA01F5CFC283D3832C
:100E500040815181840F951FC817D90759F48881A3
:100E60009981840F951F0296808391838A819B814B
:100E7000828393832115310529F4E0931A38F09386
:100E80001B383DC0E901EA83FB8349915991C40FA6
:100E9000D51FEC17FD0761F480819181840F951FA8
:100EA0000296E90188839983828193818A839B8357
:100EB000E0E0F0E012968D919C911397009719F065
:100EC000FD01DC01F7CF8D919C9111979D012E5F63
:100ED0003F4F820F931F20911838309119382817EF
:100EE000390769F4309729F410921A3810921B3898
:100EF00002C012821382A0931838B0931938DF9180
:100F0000CF910895AEE0B0E0E8E8F7E00C94430A32
:100F10000D891E8986E08C8309831A838FEF9FE7F2
:100F20008D839E83AE01475E5F4F6F89788DCE01C2
:100F300001960E94A407EF81F885E00FF11F10824F
:100F40002E96E4E00C945C0AABE0B0E0EAEAF7E04D
:100F50000C94350A6C017B018A01FC011682178210
:100F6000838181FFCCC1CE0101963C01F6019381C2
:100F7000F70193FD859193FF81917F01882309F407
:100F8000BAC1853239F493FD859193FF81917F0138
:100F9000853229F4B60190E00E949B09E7CF912C9D
:100FA000212C312CFFE1F315D8F08B3279F038F495
:100FB000803279F08332A1F4232D20611DC08D325F
:100FC00061F0803369F4232D216016C0832D826087
:100FD000382EE32DE4603E2E2AC0F32DF8601DC0AC
:100FE00037FC2DC020ED280F2A3040F08E32B9F4A6
:100FF00036FC81C1232D2064322E19C036FE06C076
:101000008AE0989E200D1124922E11C0EAE02E9EB7
:10101000200D1124222EF32DF0623F2E08C08C36B5
:1010200021F4832D8068382E02C0883641F4F70100
:1010300093FD859193FF81917F018111B3CF982F0B
:101040009F7D9554933028F40C5F1F4F9FE3998345
:101050000DC0833631F0833771F0833509F059C004
:1010600021C0F801808189830E5F1F4F88248394FB
:10107000912C530113C02801F2E04F0E511CF801CE
:10108000A080B18036FE03C0692D70E002C06FEF12
:101090007FEFC5010E9490094C018201F32DFF777B
:1010A0003F2E16C0280122E0420E511CF801A080FC
:1010B000B18036FE03C0692D70E002C06FEF7FEF94
:1010C000C5010E9485094C01F32DF0683F2E820175
:1010D00033FC1BC0822D90E088169906B0F4B6014F
:1010E00080E290E00E949B092A94F4CFF50137FC3E
:1010F000859137FE81915F01B60190E00E949B09C6
:1011000021102A9421E0821A91088114910471F728
:10111000E8C0843611F0893641F5F80137FE07C082
:1011200060817181828193810C5F1F4F08C0608153
:101130007181072E000C880B990B0E5F1F4FF32D4A
:10114000FF763F2E97FF09C0909580957095619529
:101150007F4F8F4F9F4FF0683F2E2AE030E0A30172
:101160000E94D709882E861845C0853731F4232D73
:101170002F7EB22E2AE030E025C0932D997FB92E24
:101180008F36C1F018F4883579F0B5C0803719F082
:10119000883721F0B0C0E92FE061BE2EB4FE0DC04B
:1011A000FB2DF460BF2E09C034FE0AC0292F266033
:1011B000B22E06C028E030E005C020E130E002C0D9
:1011C00020E132E0F801B7FE07C0608171818281C1
:1011D00093810C5F1F4F06C06081718180E090E0B9
:1011E0000E5F1F4FA3010E94D709882E8618FB2D82
:1011F000FF773F2E36FE0DC0232D2E7FA22E8914A1
:1012000058F434FE0BC032FC09C0832D8E7EA82E0C
:1012100005C0B82CA32C03C0B82C01C0B92CA4FE67
:101220000FC0FE01E80DF11D8081803321F49A2D5D
:10123000997EA92E09C0A2FE06C0B394B39404C03F
:101240008A2D867809F0B394A3FC11C0A0FE06C0D5
:10125000B21488F4280C922C9B180EC0B21460F4BF
:10126000B60180E290E00E949B09B394F7CFB214DC
:1012700018F42B1802C0982C212CA4FE10C0B60123
:1012800080E390E00E949B09A2FE17C0A1FC03C06E
:1012900088E790E002C088E590E0B6010CC08A2D96
:1012A000867859F0A1FE02C08BE201C080E2A7FC63
:1012B0008DE2B60190E00E949B09891438F4B601D2
:1012C00080E390E00E949B099A94F7CF8A94F301FF
:1012D000E80DF11D8081B60190E00E949B0981100C
:1012E000F5CF222009F442CEB60180E290E00E94C0
:1012F0009B092A94F6CFF6018681978102C08FEF71
:101300009FEF2B96E2E10C944E0AFC010590615090
:1013100070400110D8F7809590958E0F9F1F08950B
:10132000FC016150704001900110D8F780959095B4
:101330008E0F9F1F08950F931F93CF93DF93FB0191
:10134000238121FD03C08FEF9FEF2CC022FF16C029
:1013500046815781248135814217530744F4A08187
:10136000B1819D012F5F3F4F208331838C93268174
:1013700037812F5F3F4F2683378314C08B01EC01E9
:10138000FB010084F185E02D0995892BE1F6D80158
:1013900016968D919C911797019616968D939C9316
:1013A0001797CE01DF91CF911F910F910895FA0108
:1013B000AA27283051F1203181F1E8946F936E7F94
:1013C0006E5F7F4F8F4F9F4FAF4FB1E03ED0B4E085
:1013D0003CD0670F781F891F9A1FA11D680F791FC6
:1013E0008A1F911DA11D6A0F711D811D911DA11DD7
:1013F00020D009F468943F912AE0269F11243019E7
:10140000305D3193DEF6CF010895462F4770405D81
:101410004193B3E00FD0C9F7F6CF462F4F70405D30
:101420004A3318F0495D31FD4052419302D0A9F78B
:10143000EACFB4E0A6959795879577956795BA9585
:10144000C9F700976105710508959B01AC010A2E4B
:1014500006945795479537952795BA95C9F7620F22
:10146000731F841F951FA01D08952F923F924F92C6
:101470005F926F927F928F929F92AF92BF92CF9224
:10148000DF92EF92FF920F931F93CF93DF93CDB72D
:10149000DEB7CA1BDB0BCDBFDEBF09942A883988B3
:1014A00048885F846E847D848C849B84AA84B984FC
:1014B000C884DF80EE80FD800C811B81AA81B98108
:1014C000CE0FD11DCDBFDEBFED010895F894FFCF43
:1014D00048656C6C6F20576F726C640A00495352F8
:1014E0003A3A5443413A3A434D50313A3A436C65A3
:1014F0006172696E6720466C6167730A00495352D6
:101500003A3A5443413A3A434D50313A3A77616955
:1015100074696E67466F724563686F3A200049537D
:10152000523A3A5443413A3A434D50313A3A53745D
:101530006172746564205443420A004953523A3A36
:101540005443423A3A496E20496E7465727275701E
:10155000740A004953523A3A5443423A3A4361704A
:101560007475726520496E746572727570742C2082
:10157000436C656172696E6720666C6167730A000F
:101580004953523A3A5443423A3A426567696E20A7
:10159000556C747261736F6E696320436F756E74FE
:1015A0000A004953523A3A5443423A3A426567690B
:1015B0006E6E696E672052544320616E6420556CD4
:1015C000747261736F6E69632053656E736F720A14
:1015D000004953523A3A5254433A3A436C65617265
:1015E00020466C6167730A004953523A3A52544399
:1015F0003A3A4D6F76656420536572766F20746F4A
:10160000204D49440A004953523A3A5254433A3A17
:10161000526573657474696E672074686520756CB3
:10162000747261736F6E69632E204D6F64652069FB
:10163000732044524956450A004953523A3A52548B
:10164000433A3A44697361626C696E6720746865F5
:09165000205254430A00257500E4
:101659000000000200000000530300000000000029
:041669002238200003
:00000001FF
