:100000000C943C000C9459000C9459000C94B201CF
:100010000C9459000C9459000C9459000C945900FC
:100020000C9459000C9459000C9459000C945900EC
:100030000C9459000C943E010C9459000C945900F6
:100040000C9459000C9459000C9459000C945900CC
:100050000C9459000C9459000C9459000C945900BC
:100060000C9459000C9459000C9459000C945900AC
:100070000C9459000C94590011241FBECFEFCDBF32
:10008000DFE3DEBF18E3A0E0B8E3E3E3FCE102C096
:1000900005900D92A431B107D9F728E3A4E1B8E3A4
:1000A00001C01D92AF32B207E1F70E945E070C94C7
:1000B000F20D0C9400008F929F92AF92BF92CF925C
:1000C000DF92EF92FF920F931F93CF9388E08F936D
:1000D0001F9280E48F9380E8882E90E8A92E26E076
:1000E000C22E28E0D22E35E0E32E38E0F32E08E0D1
:1000F00020E234E044E060E274E088E098E00E94AE
:10010000640380932338909324389C0140E855E29F
:1001100065ED7CED82E390E00E94B6038093213888
:1001200090932238C1E0CF93CF9345E8842E4AE0E4
:10013000942EA12C51E8C52E5AE0D52E62E0E62E71
:1001400000E81AE021E130E04AE85AE061E170E0BD
:100150008CE89AE00E94080580931F38909320381D
:10016000CF9388E48F931F92CF938824839472E473
:10017000A72EBB24B394C12CE0E8DE2EFAE4EF2EC8
:10018000FF24F39404E020E431E041E451E060E036
:1001900087E491E00E94540580931D3890931E38A7
:1001A000C0901F38D09020381F9222E32F932CED5F
:1001B0002F9325ED2F935C01A4E0EA2E02E028E0C6
:1001C00034E044E054E060E074E080E094E00E94B9
:1001D0009F0580931B3890931C3808E21EE72CE0A3
:1001E0003DE34BE054E264EF71E40E94E705809345
:1001F000193890931A388AE08F9388E38F93B6E288
:100200008B2EBAE09B2EAA24A394C8E0CC2E10E13A
:10021000E12E03E020E041E05AE060E07AE084EE85
:1002200095E00E9400028093173890931838EE24CE
:10023000E39400E214E09C0140E165ED7CED82E393
:1002400090E00E94B20280931538909316388DB7D3
:100250009EB70F968DBF9EBFCF911F910F91FF90BC
:10026000EF90DF90CF90BF90AF909F908F900895C8
:10027000E0E2F4E080818068808308951F920F920D
:100280000FB60F9211242F933F934F935F936F9369
:100290007F938F939F93AF93BF93EF93FF9380913F
:1002A000193890911A380E94BE068091860A80FF04
:1002B00044C081E0809314388093860A8091193875
:1002C00090911A380E940B078091193890911A3832
:1002D0000E9419078091193890911A380E943407AA
:1002E00088EF9BE90E946004E0911938F0911A3878
:1002F00062897389848995890E94B9048DE09CE99B
:100300000E946004E0911938F0911A3820E030E042
:1003100040EA50E462897389848995890E942108A2
:1003200087FF09C08091153890911638FC016489C7
:1003300075890E944C031092143886EF9BE90E9445
:100340006004FF91EF91BF91AF919F918F917F9149
:100350006F915F914F913F912F910F900FBE0F9032
:100360001F9018951F920F920FB60F9211242F9382
:100370003F934F935F936F937F938F939F93AF932D
:10038000BF93EF93FF9381E19CE90E946004809109
:100390004301809343018091270480688093270460
:1003A0008091153890911638FC01668977890E94F2
:1003B0004C0380911438811112C0809119389091AA
:1003C0001A380E94CE068091193890911A380E94EE
:1003D000FE068091193890911A380E94AF06FF915D
:1003E000EF91BF91AF919F918F917F916F915F91AD
:1003F0004F913F912F910F900FBE0F901F90189526
:100400002F923F924F925F926F927F928F929F9224
:10041000AF92CF92EF920F931F93CF93DF93CDB70D
:10042000DEB71C012B013A01122F8FE090E00E94F1
:10043000ED09FC01892B09F4FFCF20823182428231
:1004400053826482758216830783E086C186A28602
:10045000838694868A899B8985879687CF01DF91D9
:10046000CF911F910F91EF90CF90AF909F908F9071
:100470007F906F905F904F903F902F9008950C94D5
:10048000850A0C94850ACF93DF93EC018989288132
:10049000829F90011124032E000C440B550B6D8597
:1004A0007E858F8598890E949207215031092A8B79
:1004B0003B8BDF91CF9108958F929F92AF92BF9225
:1004C000CF92DF92EF92FF92CF93DF93EC016D8595
:1004D0007E858F8598890E94CE084B015C016989D1
:1004E00070E080E090E00E94D0086B017C012981DF
:1004F0003A814B815C81C501B4010E948009A7014A
:1005000096010E9426080E949F086E8B7F8B29858A
:100510003A854B855C85C501B4010E948009A7011D
:1005200096010E9426080E949F086C8B7D8B2D816E
:100530003E814F815885C501B4010E948009A70101
:1005400096010E9426080E949F08688F798FDF918C
:10055000CF91FF90EF90DF90CF90BF90AF909F90A2
:100560008F9008958F929F92AF92BF92CF92DF9219
:10057000EF92FF920F931F93CF93DF934B015C0198
:10058000F42E690181E290E00E94ED09EC01892BD3
:1005900009F4FFCF8D869E86AF86B88AF98A82E3FA
:1005A00088838FE692E1A3E0BBE389879A87AB87D4
:1005B000BC8786EA9BE9A4ECBAE389839A83AB8380
:1005C000BC838FE692E1A3E8BAE38D839E83AF8379
:1005D000B887CC8EDD8E0E8F1F8FE8A2CE010E94D1
:1005E0004302CE010E945C02CE01DF91CF911F91A8
:1005F0000F91FF90EF90DF90CF90BF90AF909F90C2
:100600008F900895CF93DF93FC01C48DD58DA88181
:10061000B9819C918E81892B8C93A48DB58D149674
:10062000CD91DC911597988117962C911797189674
:100630008C91822B892B8883C48DD58DAA81BB8117
:100640009C918985892B8C93C48DD58DAA81BB8182
:100650009C918A85892B8C93A48DB58D1B96CD9109
:10066000DC911C9782899389888399831D960D90CC
:10067000BC91A02D868997898D939C93DF91CF9112
:100680000895DC015E96ED91FC915F9790819096C4
:100690008C91892B80830895DC015A966D937C930D
:1006A0005B975C96ED91FC915D970584F685E02D56
:1006B0006083718308959091040895FFFCCF809327
:1006C000020880E090E008952F923F924F925F924F
:1006D0006F927F928F92AF92CF92DF92EF92FF92C2
:1006E0000F931F93CF93DF93CDB7DEB71C012B0180
:1006F000142F390186E190E00E94ED09FC01892B5D
:1007000009F4FFCF208231824282538214836582B2
:1007100076820783E086F186C286D386A4868686A3
:100720008B898787A089B189809104088C9380E2A6
:100730008587A289B389809102088C938C899D89D1
:10074000848B958BCF01DF91CF911F910F91FF90FB
:10075000EF90DF90CF90AF908F907F906F905F90F1
:100760004F903F902F9008950C94850ACF92DF927E
:10077000EF92FF920F931F93CF93DF936B017C0156
:100780008A01E90188E090E00E94ED09009709F4F0
:10079000FFCFFC01C282D382E482F58206831783F5
:1007A000C083D183DF91CF911F910F91FF90EF9084
:1007B000DF90CF9008950C94850ACF92DF92EF924C
:1007C000FF92CF93DF93EC016A817B818C819D81C5
:1007D0000E94CE0820E030E040E852E40E94800908
:1007E0006B017C016E817F8180E090E00E94CE08E9
:1007F00020E030E040E851E40E9480099B01AC0118
:10080000C701B6010E94260820E030E040E05FE327
:100810000E94B50720E030E040E05FE30E94B507AA
:100820000E949F08E881F9810190F081E02D6083AA
:100830007183DF91CF91FF90EF90DF90CF9008957B
:10084000CF93DF93FC01A081B1811896CD91DC910B
:1008500019971C968C918883A081B1811A96CD91AD
:10086000DC911B9798811E962C911E971F968C9158
:10087000822B892B888380E098E380932B38909398
:100880002C38C081D181AA81BB819C918C81892B1C
:100890008C93A081B1811596ED91FC911697908172
:1008A00017968C91809589238083DF91CF9108954D
:1008B000DC01ED91FC910488F589E02D808108959B
:1008C000FC019191992339F08091040885FFFCCFB8
:1008D00090930208F6CF08950F931F93CF93DF9361
:1008E00000D000D0CDB7DEB71F928F9388E29CE98D
:1008F0009F938F938E010F5F1F4F1F930F930E9443
:100900000E0BC8010E9460040F900F900F900F9083
:100910000F900F902496CDBFDEBFDF91CF911F9136
:100920000F9108950F931F93CF93DF93CDB7DEB749
:100930002697CDBFDEBF9F938F9388E29CE99F935C
:100940008F938E010F5F1F4F1F930F930E940E0B0B
:10095000C8010E9460040F900F900F900F900F90AD
:100960000F902696CDBFDEBFDF91CF911F910F91E3
:1009700008958F929F92AF92BF92CF92DF92EF92A3
:10098000FF920F931F93CF93DF93CDB7DEB764979A
:10099000CDBFDEBF4B015C010E9498086B017C015A
:1009A000072E000C880B990B0E94D0089B01AC010C
:1009B000C501B4010E94B40720E030E048EC52E4E5
:1009C0000E9480090E9498087F936F93DF92CF92D4
:1009D0008BE29CE99F938F938E010F5F1F4F1F93B4
:1009E0000F930E940E0BC8010E946004CDBFDEBFB2
:1009F0006496CDBFDEBFDF91CF911F910F91FF9025
:100A0000EF90DF90CF90BF90AF909F908F90089520
:100A10002F923F924F925F926F927F928F929F920E
:100A2000AF92CF92DF92EF920F931F93CF93DF930A
:100A300000D0CDB7DEB72C013B011A0129833A83E0
:100A400082E190E00E94ED09FC01892B09F4FFCFBF
:100A500040825182628273822482358289819A81A6
:100A60008683978300871187E286C386D486A5860E
:100A7000868697868D89808B8E89818BCF010F909A
:100A80000F90DF91CF911F910F91EF90DF90CF905A
:100A9000AF909F908F907F906F905F904F903F901E
:100AA0002F9008950C94850A2F923F924F925F9257
:100AB0006F927F928F92AF92BF92CF92DF92EF921E
:100AC000FF920F931F93CF93DF93CDB7DEB72C0127
:100AD000162F3A01190183E190E00E94ED09FC0113
:100AE000892B09F4FFCF4082518212836382748282
:100AF000258236820783E086F186C286D386A48665
:100B0000B58686868C8987878D89808B8E899F891B
:100B1000818B928BCF01DF91CF911F910F91FF902D
:100B2000EF90DF90CF90BF90AF908F907F906F90BD
:100B30005F904F903F902F9008950C94850A2F92CC
:100B40003F924F925F926F927F928F929F92AF925D
:100B5000BF92CF92DF92EF920F93CF93DF93CDB7F7
:100B6000DEB72C013B014A01190182E190E00E94AD
:100B7000ED09FC01892B09F4FFCF4082518262828A
:100B8000738284829582268237820087E186C286BC
:100B9000D386A486B5868B899C89AD89BE898687D4
:100BA0009787A08BB18BCF01DF91CF910F91EF9001
:100BB000DF90CF90BF90AF909F908F907F906F907D
:100BC0005F904F903F902F9008950C94850A8F92DC
:100BD0009F92AF92BF92CF92DF92EF92FF920F93CC
:100BE0001F93CF93DF93EC016A017B014801590108
:100BF00086E190E00E94ED09FC01892B09F4FFCF0A
:100C0000128213821482158280E090E0AFE7B3E491
:100C1000828B938BA48BB58B86829782A086B186BC
:100C2000C686D786E08AF18AC083D183CF01DF915F
:100C3000CF911F910F91FF90EF90DF90CF90BF90D9
:100C4000AF909F908F9008950C94850ACF93DF9377
:100C5000FC01C081D181A881B9818C919885982BA4
:100C60009C93A081B1811296ED91FC911397908194
:100C700019968C91809589238083DF91CF91089577
:100C8000CF93DF93DC01ED91FC9111970484F585FE
:100C9000E02DC081D18182818883ED91FC911197F3
:100CA0000484F585E02DC381D481978188818923CF
:100CB000E9F7C085D1858285938588839983C4852A
:100CC000D58598818685892B8883ED91FC91048454
:100CD000F585E02DA381B48197818C918923E9F773
:100CE000A581B68197858089892B8C93DF91CF91DF
:100CF0000895CF93DF93DC01ED91FC91119702846D
:100D0000F385E02DC081D18182819381888399838D
:100D1000C481D5818681978188839983C085D18557
:100D200098818285892B8883ED91FC911197C285EA
:100D3000D385EB85FC8590818D85892B8083ED9112
:100D4000FC91A285B3851E96ED91FC911F97908131
:100D500050968C91892B8083DF91CF910895DC018F
:100D6000ED91FC91A285B3851896ED91FC911997B0
:100D7000908151968C91892B80830895DC01ED91AF
:100D8000FC91A285B3851896ED91FC9119979081FD
:100D900051968C918095892380830895FC0112825D
:100DA0001382148215821286138614861586128A7F
:100DB000138A148A158A0895DC01ED91FC9111972C
:100DC0000484F585E02D0188F289E02D20813181B0
:100DD00012962D933C9313970895DC01ED91FC91AD
:100DE00011970484F585E02D0188F289E02D20819A
:100DF000318114962D933C9315970895FC01A081A1
:100E0000B1811496ED91FC911597908118968C9173
:100E1000892B80830895FC01A081B1811496ED9106
:100E2000FC911597908118968C91809589238083E9
:100E30000895CF93DF93EC01E881F981A681B78112
:100E400091858C918923E9F3CE010E94DC06E8812B
:100E5000F981A681B78191858C918923E9F7CE012B
:100E6000DF91CF910C94ED06CF93DF93EC016C8171
:100E70007D818A819B81681B790B80E090E00E94D4
:100E8000CE082E853F85488959890E9480096A8746
:100E90007B878C879D872E813F81488559850E945D
:100EA000800920E030E040E05FE30E9480096A8B27
:100EB0007B8B8C8B9D8BDF91CF91089578940E94D2
:100EC0005B000E94380180912138909122380E9465
:100ED000DD0380912138909122380E942004809176
:100EE0001538909116380E944103809115389091E1
:100EF00016380E9402038091193890911A380E9486
:100F000026068091193890911A380E9440068091E7
:100F1000193890911A380E94790688EE9BE90E9450
:100F20006004FFCFA1E21A2EAA1BBB1BFD010DC05E
:100F3000AA1FBB1FEE1FFF1FA217B307E407F50789
:100F400020F0A21BB30BE40BF50B661F771F881F65
:100F5000991F1A9469F760957095809590959B01FB
:100F6000AC01BD01CF0108955058BB27AA270E94AC
:100F7000CC070C9446090E94380938F00E943F09BA
:100F800020F039F49F3F19F426F40C9435090EF43F
:100F9000E095E7FB0C942F09E92F0E94570958F3BD
:100FA000BA17620773078407950720F079F4A6F54E
:100FB0000C9479090EF4E0950B2EBA2FA02D0B019D
:100FC000B90190010C01CA01A0011124FF27591B8E
:100FD00099F0593F50F4503E68F11A16F040A22F94
:100FE000232F342F4427585FF3CF46953795279505
:100FF000A795F0405395C9F77EF41F16BA0B620B04
:10100000730B840BBAF09150A1F0FF0FBB1F661F4A
:10101000771F881FC2F70EC0BA0F621F731F841F8D
:1010200048F4879577956795B795F7959E3F08F0B3
:10103000B0CF9395880F08F09927EE0F9795879575
:1010400008950E940B0908F481E008950E943A086F
:101050000C9446090E943F0958F00E94380940F05C
:1010600029F45F3F29F00C942F0951110C947A094F
:101070000C9435090E94570968F39923B1F355235D
:1010800091F3951B550BBB27AA276217730784079B
:1010900038F09F5F5F4F220F331F441FAA1FA9F331
:1010A00035D00E2E3AF0E0E832D091505040E6951F
:1010B000001CCAF72BD0FE2F29D0660F771F881F80
:1010C000BB1F261737074807AB07B0E809F0BB0B73
:1010D000802DBF01FF2793585F4F3AF09E3F510587
:1010E00078F00C942F090C947A095F3FE4F3983E52
:1010F000D4F3869577956795B795F7959F5FC9F770
:10110000880F911D9695879597F90895E1E0660FF0
:10111000771F881FBB1F621773078407BA0720F069
:10112000621B730B840BBA0BEE1F88F7E0950895D2
:101130000E949F086894B1110C947A0908950E9446
:101140005F0988F09F5798F0B92F9927B751B0F0F1
:10115000E1F0660F771F881F991F1AF0BA95C9F73B
:1011600014C0B13091F00E947909B1E008950C9457
:101170007909672F782F8827B85F39F0B93FCCF30A
:10118000869577956795B395D9F73EF490958095B8
:10119000709561957F4F8F4F9F4F0895E89409C0D8
:1011A00097FB3EF490958095709561957F4F8F4F9A
:1011B0009F4F9923A9F0F92F96E9BB279395F695B0
:1011C000879577956795B795F111F8CFFAF4BB0F2E
:1011D00011F460FF1BC06F5F7F4F8F4F9F4F16C092
:1011E000882311F096E911C0772321F09EE8872F1C
:1011F000762F05C0662371F096E8862F70E060E0D8
:101200002AF09A95660F771F881FDAF7880F969550
:10121000879597F90895990F0008550FAA0BE0E8F4
:10122000FEEF16161706E807F907C0F012161306A8
:10123000E407F50798F0621B730B840B950B39F4E8
:101240000A2661F0232B242B252B21F408950A264E
:1012500009F4A140A6958FEF811D811D089597F98E
:101260009F6780E870E060E008959FEF80EC08954C
:1012700000240A9416161706180609060895002475
:101280000A9412161306140605060895092E0394EF
:10129000000C11F4882352F0BB0F40F4BF2B11F463
:1012A00060FF04C06F5F7F4F8F4F9F4F089557FDC2
:1012B0009058440F551F59F05F3F71F04795880FC4
:1012C00097FB991F61F09F3F79F08795089512165B
:1012D00013061406551FF2CF4695F1DF08C0161607
:1012E00017061806991FF1CF8695710561050894B8
:1012F0000895E894BB2766277727CB0197F90895CF
:101300000E9493090C9446090E94380938F00E9403
:101310003F0920F0952311F00C942F090C94350906
:1013200011240C947A090E94570970F3959FC1F318
:10133000950F50E0551F629FF001729FBB27F00D83
:10134000B11D639FAA27F00DB11DAA1F649F6627D8
:10135000B00DA11D661F829F2227B00DA11D621F27
:10136000739FB00DA11D621F839FA00D611D221FE1
:10137000749F3327A00D611D231F849F600D211DC5
:10138000822F762F6A2F11249F5750409AF0F1F048
:1013900088234AF0EE0FFF1FBB1F661F771F881FB1
:1013A00091505040A9F79E3F510580F00C942F09B1
:1013B0000C947A095F3FE4F3983ED4F386957795D1
:1013C0006795B795F795E7959F5FC1F7FE2B880F57
:1013D000911D9695879597F908950F931F93CF9335
:1013E000DF938230910510F482E090E0E09127389D
:1013F000F091283820E030E0A0E0B0E0309719F11B
:10140000408151810281138148175907C8F0841720
:10141000950769F4109731F012960C931297139672
:101420001C9327C0009327381093283822C0211519
:10143000310519F04217530718F49A01BD01EF0165
:10144000DF01F801DBCF21153105F9F0281B390B3D
:101450002430310580F48A819B816115710521F06A
:10146000FB018283938304C08093273890932838AC
:10147000FE01329644C0FE01E20FF31F8193919367
:1014800022503109288339833AC020912538309180
:101490002638232B41F420911038309111382093B5
:1014A00025383093263820910E3830910F38211589
:1014B000310541F42DB73EB74091123850911338A1
:1014C000241B350BE0912538F0912638E217F307FD
:1014D000A0F42E1B3F0B2817390778F0AC014E5FA4
:1014E0005F4F2417350748F04E0F5F1F4093253894
:1014F000509326388193919302C0E0E0F0E0CF0151
:10150000DF91CF911F910F910895CF93DF930097B3
:1015100009F481C0FC01329712821382A09127380E
:10152000B0912838109781F420813181820F931F68
:1015300020912538309126382817390751F5E09346
:101540002538F093263867C0ED0120E030E0CE1753
:10155000DF0740F44A815B819E0141155105F1F09E
:10156000EA01F5CFC283D38340815181840F951F57
:10157000C817D90759F488819981840F951F02965D
:10158000808391838A819B81828393832115310596
:1015900029F4E0932738F09328383DC0E901EA8325
:1015A000FB8349915991C40FD51FEC17FD0761F4D6
:1015B00080819181840F951F0296E9018883998328
:1015C000828193818A839B83E0E0F0E012968D9183
:1015D0009C911397009719F0FD01DC01F7CF8D91D5
:1015E0009C9111979D012E5F3F4F820F931F209179
:1015F0002538309126382817390769F4309729F4AF
:10160000109227381092283802C012821382A093B9
:101610002538B0932638DF91CF910895AEE0B0E041
:10162000E4E1FBE00C94CF0D0D891E8986E08C83EC
:1016300009831A838FEF9FE78D839E83AE01475EF8
:101640005F4F6F89788DCE0101960E94300BEF813C
:10165000F885E00FF11F10822E96E4E00C94E80D5F
:10166000ABE0B0E0E6E3FBE00C94C10D6C017B0164
:101670008A01FC0116821782838181FFCCC1CE01D1
:1016800001963C01F6019381F70193FD859193FF4B
:1016900081917F01882309F4BAC1853239F493FD21
:1016A000859193FF81917F01853229F4B60190E005
:1016B0000E94270DE7CF912C212C312CFFE1F3154F
:1016C000D8F08B3279F038F4803279F08332A1F49B
:1016D000232D20611DC08D3261F0803369F4232DEC
:1016E000216016C0832D8260382EE32DE4603E2EEB
:1016F0002AC0F32DF8601DC037FC2DC020ED280F47
:101700002A3040F08E32B9F436FC81C1232D20649A
:10171000322E19C036FE06C08AE0989E200D112494
:10172000922E11C0EAE02E9E200D1124222EF32DC0
:10173000F0623F2E08C08C3621F4832D8068382E4D
:1017400002C0883641F4F70193FD859193FF8191A2
:101750007F018111B3CF982F9F7D9554933028F44A
:101760000C5F1F4F9FE399830DC0833631F08337A1
:1017700071F0833509F059C021C0F8018081898357
:101780000E5F1F4F88248394912C530113C02801AE
:10179000F2E04F0E511CF801A080B18036FE03C06C
:1017A000692D70E002C06FEF7FEFC5010E941C0D34
:1017B0004C018201F32DFF773F2E16C0280122E055
:1017C000420E511CF801A080B18036FE03C0692D85
:1017D00070E002C06FEF7FEFC5010E94110D4C0158
:1017E000F32DF0683F2E820133FC1BC0822D90E068
:1017F00088169906B0F4B60180E290E00E94270DA9
:101800002A94F4CFF50137FC859137FE81915F0171
:10181000B60190E00E94270D21102A9421E0821A3F
:1018200091088114910471F7E8C0843611F089366B
:1018300041F5F80137FE07C0608171818281938193
:101840000C5F1F4F08C060817181072E000C880B50
:10185000990B0E5F1F4FF32DFF763F2E97FF09C0A8
:1018600090958095709561957F4F8F4F9F4FF06851
:101870003F2E2AE030E0A3010E94630D882E8618D7
:1018800045C0853731F4232D2F7EB22E2AE030E07B
:1018900025C0932D997FB92E8F36C1F018F4883565
:1018A00079F0B5C0803719F0883721F0B0C0E92F42
:1018B000E061BE2EB4FE0DC0FB2DF460BF2E09C04A
:1018C00034FE0AC0292F2660B22E06C028E030E080
:1018D00005C020E130E002C020E132E0F801B7FEAF
:1018E00007C060817181828193810C5F1F4F06C0A8
:1018F0006081718180E090E00E5F1F4FA3010E9424
:10190000630D882E8618FB2DFF773F2E36FE0DC007
:10191000232D2E7FA22E891458F434FE0BC032FCE6
:1019200009C0832D8E7EA82E05C0B82CA32C03C021
:10193000B82C01C0B92CA4FE0FC0FE01E80DF11DAA
:101940008081803321F49A2D997EA92E09C0A2FEB0
:1019500006C0B394B39404C08A2D867809F0B3947A
:10196000A3FC11C0A0FE06C0B21488F4280C922C6F
:101970009B180EC0B21460F4B60180E290E00E94A1
:10198000270DB394F7CFB21418F42B1802C0982C7B
:10199000212CA4FE10C0B60180E390E00E94270D28
:1019A000A2FE17C0A1FC03C088E790E002C088E552
:1019B00090E0B6010CC08A2D867859F0A1FE02C0D5
:1019C0008BE201C080E2A7FC8DE2B60190E00E94AC
:1019D000270D891438F4B60180E390E00E94270DAA
:1019E0009A94F7CF8A94F301E80DF11D8081B60136
:1019F00090E00E94270D8110F5CF222009F442CEFD
:101A0000B60180E290E00E94270D2A94F6CFF601FD
:101A10008681978102C08FEF9FEF2B96E2E10C94B5
:101A2000DA0DFC010590615070400110D8F78095E7
:101A300090958E0F9F1F0895FC016150704001909A
:101A40000110D8F7809590958E0F9F1F08950F93E2
:101A50001F93CF93DF93FB01238121FD03C08FEF01
:101A60009FEF2CC022FF16C046815781248135810B
:101A70004217530744F4A081B1819D012F5F3F4F6E
:101A8000208331838C93268137812F5F3F4F2683BC
:101A9000378314C08B01EC01FB010084F185E02D3C
:101AA0000995892BE1F6D80116968D919C9117978F
:101AB000019616968D939C931797CE01DF91CF9147
:101AC0001F910F910895FA01AA27283051F1203172
:101AD00081F1E8946F936E7F6E5F7F4F8F4F9F4FC2
:101AE000AF4FB1E03ED0B4E03CD0670F781F891F04
:101AF0009A1FA11D680F791F8A1F911DA11D6A0FD2
:101B0000711D811D911DA11D20D009F468943F9184
:101B10002AE0269F11243019305D3193DEF6CF0183
:101B20000895462F4770405D4193B3E00FD0C9F749
:101B3000F6CF462F4F70405D4A3318F0495D31FDB6
:101B40004052419302D0A9F7EACFB4E0A695979509
:101B5000879577956795BA95C9F7009761057105DF
:101B600008959B01AC010A2E069457954795379529
:101B70002795BA95C9F7620F731F841F951FA01D83
:101B800008952F923F924F925F926F927F928F9221
:101B90009F92AF92BF92CF92DF92EF92FF920F93FC
:101BA0001F93CF93DF93CDB7DEB7CA1BDB0BCDBF3F
:101BB000DEBF09942A88398848885F846E847D84D2
:101BC0008C849B84AA84B984C884DF80EE80FD80E5
:101BD0000C811B81AA81B981CE0FD11DCDBFDEBF83
:081BE000ED010895F894FFCF18
:101BE800536574757020636F6D706C6574650A0059
:101BF8004953523A3A5443423A3A44697374616ECB
:101C080063653A2000636D0A004953523A3A5254C8
:101C1800433A3A436C65617220466C6167730A0007
:0B1C280025750025642E253032640075
:101C330000000002000000005B0300000000000041
:041C43002F38200016
:00000001FF
