:100000000C943C000C9459000C9459000C94590029
:100010000C9459000C9459000C9459000C945900FC
:100020000C9459000C9459000C9459000C945900EC
:100030000C9459000C9459000C9459000C945900DC
:100040000C9459000C9459000C9459000C945900CC
:100050000C9459000C9459000C9459000C945900BC
:100060000C9459000C9459000C9459000C945900AC
:100070000C9459000C94590011241FBECFEFCDBF32
:10008000DFE3DEBF18E3A0E0B8E3EFE5F5E102C08F
:1000900005900D92A431B107D9F728E3A4E1B8E3A4
:1000A00001C01D92A232B207E1F70E9481030C94B5
:1000B0008A0A0C940000E0E2F4E08081806880838A
:1000C000E0E0F4E080818260808380818B7F8083A8
:1000D0000895E0E0F4E08481826084838BE08A9577
:1000E000F1F7000084818D7F848308951092470189
:1000F0008091410182FDFCCF80E090E880934A012D
:1001000090934B018091400182FDFCCF80E8809369
:1001100040010895E0E4F1E08081816080830895EA
:10012000E0E4F1E080818E7F808380859185089571
:100130000C941D07CF93DF93EC0189892881829F5E
:1001400090011124032E000C440B550B6D857E8508
:100150008F8598890E945304215031092A8B3B8B4B
:10016000DF91CF9108958F929F92AF92BF92CF92DD
:10017000DF92EF92FF92CF93DF93EC016D857E8546
:100180008F8598890E948A054B015C01698970E01E
:1001900080E090E00E948C056B017C0129813A810E
:1001A0004B815C81C501B4010E941806A70196012C
:1001B0000E94E2040E945B056E8B7F8B29853A8545
:1001C0004B855C85C501B4010E941806A701960104
:1001D0000E94E2040E945B056C8B7D8B2D813E8129
:1001E0004F815885C501B4010E941806A7019601E8
:1001F0000E94E2040E945B05688F798FDF91CF91A6
:10020000FF90EF90DF90CF90BF90AF909F908F9036
:100210000895CF92DF92EF92FF921F93CF93DF93D7
:100220006B017C01142F8CE190E00E948506EC01AB
:10023000892B09F4FFCFCD86DE86EF86F88A198BED
:1002400082E388838FE692E1A3E0BBE389879A8704
:10025000AB87BC8786EA9BE9A4ECBAE389839A83DF
:10026000AB83BC838FE692E1A3E8BAE38D839E83E0
:10027000AF83B887CE010E949A00CE010E94B300DE
:10028000CE01DF91CF911F91FF90EF90DF90CF9043
:100290000895FC01628F738F6093280A7093290A76
:1002A00008959091040895FFFCCF8093020880E0A8
:1002B00090E008952F923F924F925F926F927F92BB
:1002C0008F92AF92CF92DF92EF92FF920F931F9394
:1002D000CF93DF93CDB7DEB71C012B01142F39016B
:1002E00086E190E00E948506FC01892B09F4FFCF8E
:1002F0002082318242825382148365827682078310
:10030000E086F186C286D386A48686868B89878717
:10031000A089B189809104088C9380E28587A289A5
:10032000B389809102088C938C899D89848B958BED
:10033000CF01DF91CF911F910F91FF90EF90DF9050
:10034000CF90AF908F907F906F905F904F903F9045
:100350002F9008950C941D07CF92DF92EF92FF9299
:100360000F931F93CF93DF936B017C018A01E90107
:1003700088E090E00E948506009709F4FFCFFC0119
:10038000C282D382E482F58206831783C083D1833D
:10039000DF91CF911F910F91FF90EF90DF90CF9061
:1003A00008950C941D07CF92DF92EF92FF92CF93A6
:1003B000DF93EC016A817B818C819D810E948A059B
:1003C00020E030E040E852E40E9418066B017C0116
:1003D0006E817F8180E090E00E948A0520E030E01D
:1003E00040E851E40E9418069B01AC01C701B60128
:1003F0000E94E20420E030E040E05FE30E947604E7
:1004000020E030E040E05FE30E9476040E945B055C
:10041000E881F9810190F081E02D60837183DF91A3
:10042000CF91FF90EF90DF90CF900895CF93DF931F
:10043000FC01A081B1811896CD91DC9119971C9691
:100440008C918883A081B1811A96CD91DC911B9704
:1004500098811E962C911E971F968C91822B892B2A
:10046000888380E098E380931E3890931F38C08182
:10047000D181AA81BB819C918C81892B8C93A08195
:10048000B1811596ED91FC911697908117968C91FC
:10049000809589238083DF91CF910895DC01ED91D0
:1004A000FC910488F589E02D80810895FC019191EB
:1004B000992339F08091040885FFFCCF90930208BE
:1004C000F6CF08950F931F93CF93DF9300D000D002
:1004D000CDB7DEB71F928F9384E595E99F938F93F5
:1004E0008E010F5F1F4F1F930F930E94A607C80135
:1004F0000E9456020F900F900F900F900F900F9048
:100500002496CDBFDEBFDF91CF911F910F9108954B
:100510000F931F93CF93DF93CDB7DEB72697CDBF51
:10052000DEBF9F938F9384E595E99F938F938E0110
:100530000F5F1F4F1F930F930E94A607C8010E94D1
:1005400056020F900F900F900F900F900F902696DD
:10055000CDBFDEBFDF91CF911F910F9108958F9294
:100560009F92AF92BF92CF92DF92EF92FF920F9342
:100570001F93CF93DF93CDB7DEB76497CDBFDEBFB8
:100580004B015C010E9454056B017C01072E000C9D
:10059000880B990B0E948C059B01AC01C501B4012D
:1005A0000E94750420E030E048EC52E40E941806F6
:1005B0000E9454057F936F93DF92CF9287E595E970
:1005C0009F938F938E010F5F1F4F1F930F930E9476
:1005D000A607C8010E945602CDBFDEBF6496CDBFFC
:1005E000DEBFDF91CF911F910F91FF90EF90DF90D1
:1005F000CF90BF90AF909F908F900895CF92DF9251
:10060000EF92FF92CF93C82F6A017B0187E190E0C0
:100610000E948506FC01892B09F4FFCF118212820A
:100620001382108280E090E0AFE7B3E48483958387
:10063000A683B783C087C186D286E386F4861586F3
:1006400016861786108A118A128A138A148A158AC6
:10065000168ACF01CF91FF90EF90DF90CF90089551
:100660000C941D07FC01118212821382108280E01B
:1006700090E0AFE7B3E484839583A683B7831586C0
:1006800016861786108A118A128A138A148A158A86
:10069000168A0895FC0181E0808311821282138200
:1006A0000895FC01628373830895CF93DF93EC0177
:1006B0006A817B8180E090E00E948A0529853A85E5
:1006C0004B855C850E94180620E030E040E05FE347
:1006D0000E9418066C837D838E839F83DF91CF9168
:1006E0000895FC01658776870895FC014787508B44
:1006F000618B728B0895FC01438B548B658B768BD9
:10070000089588E08F931F9280E48F9380E8882E6D
:1007100090E8A92E26E0C22E28E0D22E35E0E32E66
:1007200038E0F32E08E020E234E044E060E274E0D8
:1007300088E098E00E945A01809316389093173809
:100740009C0140E855E265ED7CED82E390E00E947B
:10075000AC0180931438909315380E94D301809196
:100760001438909115380E9416020E945B000E9476
:1007700076002AE28CE29AE0215080409040E1F736
:1007800000000E948A000F900F900F908091270424
:100790008068809327042AE28CE29AE0215080400E
:1007A0009040E1F70000809127048068809327043F
:1007B0002AE28CE29AE0215080409040E1F700006C
:1007C0000E9469008091080482FFFCCFA09048013C
:1007D000B09049018091080482FDFCCF009148014E
:1007E00010914901E801CA19DB09BE0180E090E0DF
:1007F0000E948A052BE034E244EF51E40E9418067F
:100800006B017C0188E195E90E945602C5010E94B6
:10081000880282E595E90E94560284E295E90E94E9
:100820005602C8010E94880282E595E90E9456029C
:1008300087E295E90E945602CE010E94880282E575
:1008400095E90E9456028EE295E90E945602C70180
:10085000B6010E945B05CB010E94880282E595E902
:100860000E94560285E495E90E94560228E23EE77E
:100870004CE05DE3C701B6010E94180620E030E0BD
:1008800040E05FE30E9418060E94AF0280E595E910
:100890000E9456022BE02A95F1F7000082E595E9C7
:1008A0000E94560273CFA1E21A2EAA1BBB1BFD01A8
:1008B0000DC0AA1FBB1FEE1FFF1FA217B307E4073F
:1008C000F50720F0A21BB30BE40BF50B661F771F97
:1008D000881F991F1A9469F7609570958095909577
:1008E0009B01AC01BD01CF0108955058BB27AA2739
:1008F0000E948D040C94DE050E94D00538F00E9401
:10090000D70520F039F49F3F19F426F40C94CD0557
:100910000EF4E095E7FB0C94C705E92F0E94EF0564
:1009200058F3BA17620773078407950720F079F424
:10093000A6F50C9411060EF4E0950B2EBA2FA02DFF
:100940000B01B90190010C01CA01A0011124FF277C
:10095000591B99F0593F50F4503E68F11A16F04077
:10096000A22F232F342F4427585FF3CF4695379576
:100970002795A795F0405395C9F77EF41F16BA0B3B
:10098000620B730B840BBAF09150A1F0FF0FBB1FE9
:10099000661F771F881FC2F70EC0BA0F621F731F32
:1009A000841F48F4879577956795B795F7959E3F8F
:1009B00008F0B0CF9395880F08F09927EE0F979520
:1009C000879508950E94F6040C94DE050E94D705D1
:1009D00058F00E94D00540F029F45F3F29F00C94B4
:1009E000C70551110C9412060C94CD050E94EF0519
:1009F00068F39923B1F3552391F3951B550BBB274E
:100A0000AA2762177307840738F09F5F5F4F220F92
:100A1000331F441FAA1FA9F335D00E2E3AF0E0E889
:100A200032D091505040E695001CCAF72BD0FE2FD3
:100A300029D0660F771F881FBB1F26173707480767
:100A4000AB07B0E809F0BB0B802DBF01FF2793581F
:100A50005F4F3AF09E3F510578F00C94C7050C9417
:100A600012065F3FE4F3983ED4F386957795679539
:100A7000B795F7959F5FC9F7880F911D9695879554
:100A800097F90895E1E0660F771F881FBB1F621773
:100A900073078407BA0720F0621B730B840BBA0B31
:100AA000EE1F88F7E09508950E945B056894B111E8
:100AB0000C94120608950E94F70588F09F5798F04D
:100AC000B92F9927B751B0F0E1F0660F771F881F53
:100AD000991F1AF0BA95C9F714C0B13091F00E946D
:100AE0001106B1E008950C941106672F782F88271E
:100AF000B85F39F0B93FCCF3869577956795B39594
:100B0000D9F73EF490958095709561957F4F8F4F02
:100B10009F4F0895E89409C097FB3EF49095809507
:100B2000709561957F4F8F4F9F4F9923A9F0F92FB3
:100B300096E9BB279395F695879577956795B79531
:100B4000F111F8CFFAF4BB0F11F460FF1BC06F5F17
:100B50007F4F8F4F9F4F16C0882311F096E911C029
:100B6000772321F09EE8872F762F05C0662371F04A
:100B700096E8862F70E060E02AF09A95660F771F5E
:100B8000881FDAF7880F9695879597F9089597F952
:100B90009F6780E870E060E008959FEF80EC089523
:100BA00000240A941616170618060906089500244C
:100BB0000A9412161306140605060895092E0394C6
:100BC000000C11F4882352F0BB0F40F4BF2B11F43A
:100BD00060FF04C06F5F7F4F8F4F9F4F089557FD99
:100BE0009058440F551F59F05F3F71F04795880F9B
:100BF00097FB991F61F09F3F79F087950895121632
:100C000013061406551FF2CF4695F1DF08C01616DD
:100C100017061806991FF1CF86957105610508948E
:100C20000895E894BB2766277727CB0197F90895A5
:100C30000E942B060C94DE050E94D00538F00E941D
:100C4000D70520F0952311F00C94C7050C94CD0521
:100C500011240C9412060E94EF0570F3959FC1F3C6
:100C6000950F50E0551F629FF001729FBB27F00D5A
:100C7000B11D639FAA27F00DB11DAA1F649F6627AF
:100C8000B00DA11D661F829F2227B00DA11D621FFE
:100C9000739FB00DA11D621F839FA00D611D221FB8
:100CA000749F3327A00D611D231F849F600D211D9C
:100CB000822F762F6A2F11249F5750409AF0F1F01F
:100CC00088234AF0EE0FFF1FBB1F661F771F881F88
:100CD00091505040A9F79E3F510580F00C94C705F4
:100CE0000C9412065F3FE4F3983ED4F38695779513
:100CF0006795B795F795E7959F5FC1F7FE2B880F2E
:100D0000911D9695879597F908950F931F93CF930B
:100D1000DF938230910510F482E090E0E0911A3880
:100D2000F0911B3820E030E0A0E0B0E0309719F1FE
:100D3000408151810281138148175907C8F08417F7
:100D4000950769F4109731F012960C931297139649
:100D50001C9327C000931A3810931B3822C021150A
:100D6000310519F04217530718F49A01BD01EF013C
:100D7000DF01F801DBCF21153105F9F0281B390B14
:100D80002430310580F48A819B816115710521F041
:100D9000FB018283938304C080931A3890931B389D
:100DA000FE01329644C0FE01E20FF31F819391933E
:100DB00022503109288339833AC020911838309164
:100DC0001938232B41F42091103830911138209399
:100DD00018383093193820910E3830910F3821157A
:100DE000310541F42DB73EB7409112385091133878
:100DF000241B350BE0911838F0911938E217F307EE
:100E0000A0F42E1B3F0B2817390778F0AC014E5F7A
:100E10005F4F2417350748F04E0F5F1F4093183877
:100E2000509319388193919302C0E0E0F0E0CF0134
:100E3000DF91CF911F910F910895CF93DF9300978A
:100E400009F481C0FC01329712821382A0911A38F2
:100E5000B0911B38109781F420813181820F931F4C
:100E600020911838309119382817390751F5E09337
:100E70001838F093193867C0ED0120E030E0CE1744
:100E8000DF0740F44A815B819E0141155105F1F075
:100E9000EA01F5CFC283D38340815181840F951F2E
:100EA000C817D90759F488819981840F951F029634
:100EB000808391838A819B8182839383211531056D
:100EC00029F4E0931A38F0931B383DC0E901EA8316
:100ED000FB8349915991C40FD51FEC17FD0761F4AD
:100EE00080819181840F951F0296E90188839983FF
:100EF000828193818A839B83E0E0F0E012968D915A
:100F00009C911397009719F0FD01DC01F7CF8D91AB
:100F10009C9111979D012E5F3F4F820F931F20914F
:100F20001838309119382817390769F4309729F49F
:100F300010921A3810921B3802C012821382A093AA
:100F40001838B0931938DF91CF910895AEE0B0E032
:100F5000ECEAF7E00C94670A0D891E8986E08C8321
:100F600009831A838FEF9FE78D839E83AE01475ECF
:100F70005F4F6F89788DCE0101960E94C807EF817F
:100F8000F885E00FF11F10822E96E4E00C94800AA1
:100F9000ABE0B0E0EEECF7E00C94590A6C017B0199
:100FA0008A01FC0116821782838181FFCCC1CE01A8
:100FB00001963C01F6019381F70193FD859193FF22
:100FC00081917F01882309F4BAC1853239F493FDF8
:100FD000859193FF81917F01853229F4B60190E0DC
:100FE0000E94BF09E7CF912C212C312CFFE1F31592
:100FF000D8F08B3279F038F4803279F08332A1F472
:10100000232D20611DC08D3261F0803369F4232DC2
:10101000216016C0832D8260382EE32DE4603E2EC1
:101020002AC0F32DF8601DC037FC2DC020ED280F1D
:101030002A3040F08E32B9F436FC81C1232D206471
:10104000322E19C036FE06C08AE0989E200D11246B
:10105000922E11C0EAE02E9E200D1124222EF32D97
:10106000F0623F2E08C08C3621F4832D8068382E24
:1010700002C0883641F4F70193FD859193FF819179
:101080007F018111B3CF982F9F7D9554933028F421
:101090000C5F1F4F9FE399830DC0833631F0833778
:1010A00071F0833509F059C021C0F801808189832E
:1010B0000E5F1F4F88248394912C530113C0280185
:1010C000F2E04F0E511CF801A080B18036FE03C043
:1010D000692D70E002C06FEF7FEFC5010E94B40977
:1010E0004C018201F32DFF773F2E16C0280122E02C
:1010F000420E511CF801A080B18036FE03C0692D5C
:1011000070E002C06FEF7FEFC5010E94A9094C019A
:10111000F32DF0683F2E820133FC1BC0822D90E03E
:1011200088169906B0F4B60180E290E00E94BF09EB
:101130002A94F4CFF50137FC859137FE81915F0148
:10114000B60190E00E94BF0921102A9421E0821A82
:1011500091088114910471F7E8C0843611F0893642
:1011600041F5F80137FE07C060817181828193816A
:101170000C5F1F4F08C060817181072E000C880B27
:10118000990B0E5F1F4FF32DFF763F2E97FF09C07F
:1011900090958095709561957F4F8F4F9F4FF06828
:1011A0003F2E2AE030E0A3010E94FB09882E86181A
:1011B00045C0853731F4232D2F7EB22E2AE030E052
:1011C00025C0932D997FB92E8F36C1F018F488353C
:1011D00079F0B5C0803719F0883721F0B0C0E92F19
:1011E000E061BE2EB4FE0DC0FB2DF460BF2E09C021
:1011F00034FE0AC0292F2660B22E06C028E030E057
:1012000005C020E130E002C020E132E0F801B7FE85
:1012100007C060817181828193810C5F1F4F06C07E
:101220006081718180E090E00E5F1F4FA3010E94FA
:10123000FB09882E8618FB2DFF773F2E36FE0DC04A
:10124000232D2E7FA22E891458F434FE0BC032FCBD
:1012500009C0832D8E7EA82E05C0B82CA32C03C0F8
:10126000B82C01C0B92CA4FE0FC0FE01E80DF11D81
:101270008081803321F49A2D997EA92E09C0A2FE87
:1012800006C0B394B39404C08A2D867809F0B39451
:10129000A3FC11C0A0FE06C0B21488F4280C922C46
:1012A0009B180EC0B21460F4B60180E290E00E9478
:1012B000BF09B394F7CFB21418F42B1802C0982CBE
:1012C000212CA4FE10C0B60180E390E00E94BF096B
:1012D000A2FE17C0A1FC03C088E790E002C088E529
:1012E00090E0B6010CC08A2D867859F0A1FE02C0AC
:1012F0008BE201C080E2A7FC8DE2B60190E00E9483
:10130000BF09891438F4B60180E390E00E94BF0958
:101310009A94F7CF8A94F301E80DF11D8081B6010C
:1013200090E00E94BF098110F5CF222009F442CE3F
:10133000B60180E290E00E94BF092A94F6CFF60140
:101340008681978102C08FEF9FEF2B96E2E10C948C
:10135000720AFC010590615070400110D8F7809529
:1013600090958E0F9F1F0895FC0161507040019071
:101370000110D8F7809590958E0F9F1F08950F93B9
:101380001F93CF93DF93FB01238121FD03C08FEFD8
:101390009FEF2CC022FF16C04681578124813581E2
:1013A0004217530744F4A081B1819D012F5F3F4F45
:1013B000208331838C93268137812F5F3F4F268393
:1013C000378314C08B01EC01FB010084F185E02D13
:1013D0000995892BE1F6D80116968D919C91179766
:1013E000019616968D939C931797CE01DF91CF911E
:1013F0001F910F910895FA01AA27283051F1203149
:1014000081F1E8946F936E7F6E5F7F4F8F4F9F4F98
:10141000AF4FB1E03ED0B4E03CD0670F781F891FDA
:101420009A1FA11D680F791F8A1F911DA11D6A0FA8
:10143000711D811D911DA11D20D009F468943F915B
:101440002AE0269F11243019305D3193DEF6CF015A
:101450000895462F4770405D4193B3E00FD0C9F720
:10146000F6CF462F4F70405D4A3318F0495D31FD8D
:101470004052419302D0A9F7EACFB4E0A6959795E0
:10148000879577956795BA95C9F7009761057105B6
:1014900008959B01AC010A2E069457954795379500
:1014A0002795BA95C9F7620F731F841F951FA01D5A
:1014B00008952F923F924F925F926F927F928F92F8
:1014C0009F92AF92BF92CF92DF92EF92FF920F93D3
:1014D0001F93CF93DF93CDB7DEB7CA1BDB0BCDBF16
:1014E000DEBF09942A88398848885F846E847D84A9
:1014F0008C849B84AA84B984C884DF80EE80FD80BC
:101500000C811B81AA81B981CE0FD11DCDBFDEBF59
:08151000ED010895F894FFCFEE
:10151800737461727454696D653A2000656E645421
:10152800696D653A200054696D6520696E204D69C2
:1015380063726F7365636F6E64733A2000446973F6
:1015480074616E63653A2000636D0A002575002595
:07155800642E25303264000F
:10155F000000000200000000510100000000000028
:04156F0022382000FE
:00000001FF
