:100000000C943C000C9459000C9459000C94E4019D
:100010000C9459000C9459000C9459000C945900FC
:100020000C9459000C9459000C9459000C945900EC
:100030000C9459000C943E010C9459000C945900F6
:100040000C9459000C9459000C9459000C945900CC
:100050000C9459000C9459000C9459000C945900BC
:100060000C9459000C9459000C9459000C945900AC
:100070000C9459000C94590011241FBECFEFCDBF32
:10008000DFE3DEBF18E3A0E0B8E3E2EAFEE102C08E
:1000900005900D92A431B107D9F728E3A4E1B8E3A4
:1000A00001C01D92A233B207E1F70E945D080C94D3
:1000B000F60E0C9400008F929F92AF92BF92CF9257
:1000C000DF92EF92FF920F931F93CF9388E08F936D
:1000D0001F9280E48F9380E8882E90E8A92E26E076
:1000E000C22E28E0D22E35E0E32E38E0F32E08E0D1
:1000F00020E234E044E060E274E088E098E00E94AE
:10010000630480932638909327389C0140E855E299
:1001100065ED7CED82E390E00E94B5048093243885
:1001200090932538C1E0CF93CF9345E8842E4AE0E1
:10013000942EA12C51E8C52E5AE0D52E62E0E62E71
:1001400000E81AE02FEF3FEF4AE85AE06FEF7FEF49
:100150008CE89AE00E940706809322389093233817
:10016000CF9388E48F931F92CF938824839472E473
:10017000A72EBB24B394C12CE0E8DE2EFAE4EF2EC8
:10018000FF24F39404E020E431E041E451E060E036
:1001900087E491E00E9453068093203890932138A1
:1001A000C0902238D09023381F9222E32F932CED59
:1001B0002F9325ED2F935C01A4E0EA2E02E028E0C6
:1001C00034E044E054E060E074E080E094E00E94B9
:1001D0009E0680931E3890931F3808E21EE72CE09D
:1001E0003DE34BE054E264EF71E40E94E606809345
:1001F0001C3890931D388AE08F9388E38F93B6E282
:100200008B2EBAE09B2EAA24A394C8E0CC2E10E13A
:10021000E12E03E020E041E05AE060E07AE084EE85
:1002200095E00E94FF0280931A3890931B38EE24C9
:10023000E39400E214E09C0140E165ED7CED82E393
:1002400090E00E94B10380931838909319388DB7CD
:100250009EB70F968DBF9EBFCF911F910F91FF90BC
:10026000EF90DF90CF90BF90AF909F908F900895C8
:10027000E0E2F4E080818068808308951F920F920D
:100280000FB60F9211242F933F934F935F936F9369
:100290007F938F939F93AF93BF93EF93FF9380913F
:1002A0001C3890911D380E94BD078091860A80FFFE
:1002B0007AC081E0809315388093860A80911C383B
:1002C00090911D380E940A0880911C3890911D3829
:1002D0000E94180880911C3890911D380E943308A4
:1002E00080E09EE90E945F05E0911C38F0911D3886
:1002F00062897389848995890E94B80585E19EE9A0
:100300000E945F058091163890911738892BB1F4BF
:10031000E0911C38F0911D3820E030E040EA50E4D4
:1003200062897389848995890E94200987FF06C0A4
:1003300081E090E0809316389093173880911638BA
:1003400090911738019749F5E0911838F0911938D4
:10035000828D938D248935898217930769F4E09102
:100360001C38F0911D3882899389A489B589868BC0
:10037000978BA08FB18F11C0208D318D821793077D
:1003800061F4E0911C38F0911D3882899389A48929
:10039000B589868F978FA0A3B1A31092153880E6F8
:1003A0009EE90E945F05FF91EF91BF91AF919F91F0
:1003B0008F917F916F915F914F913F912F910F900E
:1003C0000FBE0F901F9018951F920F920FB60F92AD
:1003D00011242F933F934F935F936F937F938F934A
:1003E0009F93AF93BF93EF93FF9389E19EE90E94A0
:1003F0005F058091430180934301809127048068C9
:100400008093270480911538811127C08091163878
:1004100090911738892B09F580E39EE90E945F05CA
:100420008091183890911938DC0156966D917C9125
:1004300057970E944B0480911C3890911D380E9460
:10044000CD0780911C3890911D380E94FD07809146
:100450001C3890911D380E94AE078091153881118B
:1004600052C08091163890911738019709F04BC00F
:1004700080E49EE90E945F058091183890911938B8
:10048000FC01228D338D408D518D2417350739F4B1
:1004900082E090E0809316389093173834C0DC01E6
:1004A0000688F789E02D54966D917C9155972E170B
:1004B0003F0751F40E944B04B5E1E6E1F5E0B1508D
:1004C000E040F040E1F70DC02617370751F4BA01BC
:1004D0000E944B0425E186E195E021508040904048
:1004E000E1F780911C3890911D380E94CD078091D2
:1004F0001C3890911D380E94FD0780911C38909106
:100500001D380E94AE0780911638909117380297D7
:1005100009F064C080E59EE90E945F0582E69EE9DD
:100520000E945F05E0911C38F0911D38668977893B
:10053000808D918D0E94B80585E19EE90E945F053E
:1005400083E79EE90E945F05E0911C38F0911D3819
:10055000668D778D80A191A10E94B80585E19EE905
:100560000E945F05E0911C38F0911D38268D378D73
:1005700040A151A166897789808D918D0E947F0A63
:10058000E0911838F091193818161CF464897589AF
:1005900002C0608D718DCF010E944B048091143890
:1005A000863030F4809114388F5F8093143806C001
:1005B00010921438109216381092173885E89EE978
:1005C0000E945F05809114380E946B0580E69EE9C9
:1005D0000E945F0580E69EE90E945F05FF91EF9112
:1005E000BF91AF919F918F917F916F915F914F914B
:1005F0003F912F910F900FBE0F901F9018952F9243
:100600003F924F925F926F927F928F929F92AF92A2
:10061000CF92EF920F931F93CF93DF93CDB7DEB7B7
:100620001C012B013A01122F8FE090E00E94F10A89
:10063000FC01892B09F4FFCF208231824282538250
:100640006482758216830783E086C186A2868386CC
:1006500094868A899B8985879687CF01DF91CF9180
:100660001F910F91EF90CF90AF909F908F907F90C0
:100670006F905F904F903F902F9008950C94890B4E
:100680000C94890BCF93DF93EC0189892881829F99
:1006900090011124032E000C440B550B6D857E85B3
:1006A0008F8598890E949108215031092A8B3B8BB4
:1006B000DF91CF9108958F929F92AF92BF92CF9288
:1006C000DF92EF92FF92CF93DF93EC016D857E85F1
:1006D0008F8598890E94CD094B015C01698970E082
:1006E00080E090E00E94CF096B017C0129813A8172
:1006F0004B815C81C501B4010E94840AA701960167
:100700000E9425090E949E096E8B7F8B29853A8560
:100710004B855C85C501B4010E94840AA70196013E
:100720000E9425090E949E096C8B7D8B2D813E8144
:100730004F815885C501B4010E94840AA701960122
:100740000E9425090E949E09688F798FDF91CF91C1
:10075000FF90EF90DF90CF90BF90AF909F908F90E1
:1007600008958F929F92AF92BF92CF92DF92EF92B5
:10077000FF920F931F93CF93DF934B015C01F42EF5
:10078000690181E290E00E94F10AEC01892B09F4F1
:10079000FFCF8D869E86AF86B88AF98A82E38883EA
:1007A0008FE692E1A3E0BBE389879A87AB87BC879A
:1007B00086EA9BE9A4ECBAE389839A83AB83BC8382
:1007C0008FE692E1A3E8BAE38D839E83AF83B88777
:1007D000CC8EDD8E0E8F1F8FE8A2CE010E944203C9
:1007E000CE010E945B03CE01DF91CF911F910F914B
:1007F000FF90EF90DF90CF90BF90AF909F908F9041
:100800000895CF93DF93FC01C48DD58DA881B98164
:100810009C918E81892B8C93A48DB58D1496CD914E
:10082000DC911597988117962C91179718968C91B3
:10083000822B892B8883C48DD58DAA81BB819C9105
:100840008985892B8C93C48DD58DAA81BB819C9180
:100850008A85892B8C93A48DB58D1B96CD91DC91C7
:100860001C9782899389888399831D960D90BC91EA
:10087000A02D868997898D939C93DF91CF910895C0
:10088000DC015E96ED91FC915F97908190968C9142
:10089000892B80830895DC015A966D937C935B9736
:1008A0005C96ED91FC915D970584F685E02D608363
:1008B000718308959091040895FFFCCF80930208FE
:1008C00080E090E008952F923F924F925F926F9256
:1008D0007F928F92AF92CF92DF92EF92FF920F931F
:1008E0001F93CF93DF93CDB7DEB71C012B01142FDD
:1008F000390186E190E00E94F10AFC01892B09F49C
:10090000FFCF2082318242825382148365827682B5
:100910000783E086F186C286D386A48686868B8985
:100920008787A089B189809104088C9380E28587AC
:10093000A289B389809102088C938C899D89848BCC
:10094000958BCF01DF91CF911F910F91FF90EF9089
:10095000DF90CF90AF908F907F906F905F904F908F
:100960003F902F9008950C94890BCF92DF92EF92D5
:10097000FF920F931F93CF93DF936B017C018A014A
:10098000E90188E090E00E94F10A009709F4FFCFA6
:10099000FC01C282D382E482F58206831783C0837E
:1009A000D183DF91CF911F910F91FF90EF90DF9056
:1009B000CF9008950C94890BCF92DF92EF92FF9223
:1009C000CF93DF93EC016A817B818C819D810E94B2
:1009D000CD0920E030E040E852E40E94840A6B0137
:1009E0007C016E817F8180E090E00E94CD0920E053
:1009F00030E040E851E40E94840A9B01AC01C70149
:100A0000B6010E94250920E030E040E05FE30E944B
:100A1000B40820E030E040E05FE30E94B4080E94A8
:100A20009E09E881F9810190F081E02D6083718356
:100A3000DF91CF91FF90EF90DF90CF900895CF930B
:100A4000DF93FC01A081B1811896CD91DC911997BB
:100A50001C968C918883A081B1811A96CD91DC91EE
:100A60001B9798811E962C911E971F968C91822B16
:100A7000892B888380E098E380932E3890932F38D9
:100A8000C081D181AA81BB819C918C81892B8C935F
:100A9000A081B1811596ED91FC91169790811796E2
:100AA0008C91809589238083DF91CF910895DC011B
:100AB000ED91FC910488F589E02D80810895FC0179
:100AC0009191992339F08091040885FFFCCF909390
:100AD0000208F6CF08950F931F93CF93DF9300D0B2
:100AE00000D0CDB7DEB71F928F9387E99EE99F9321
:100AF0008F938E010F5F1F4F1F930F930E94120C55
:100B0000C8010E945F050F900F900F900F900F90FB
:100B10000F902496CDBFDEBFDF91CF911F910F9133
:100B200008950F931F93CF93DF93CDB7DEB726972A
:100B3000CDBFDEBF9F938F9387E99EE99F938F93ED
:100B40008E010F5F1F4F1F930F930E94120CC8015D
:100B50000E945F050F900F900F900F900F900F90D5
:100B60002696CDBFDEBFDF91CF911F910F910895E3
:100B70008F929F92AF92BF92CF92DF92EF92FF92AD
:100B80000F931F93CF93DF93CDB7DEB76497CDBF9D
:100B9000DEBF4B015C010E9497096B017C01072EAF
:100BA000000C880B990B0E94CF099B01AC01C50179
:100BB000B4010E94B30820E030E048EC52E40E9407
:100BC000840A0E9497097F936F93DF92CF928AE9FC
:100BD0009EE99F938F938E010F5F1F4F1F930F937B
:100BE0000E94120CC8010E945F05CDBFDEBF649653
:100BF000CDBFDEBFDF91CF911F910F91FF90EF909E
:100C0000DF90CF90BF90AF909F908F9008952F92DC
:100C10003F924F925F926F927F928F929F92AF928C
:100C2000CF92DF92EF920F931F93CF93DF9300D079
:100C3000CDB7DEB72C013B011A0129833A8382E14B
:100C400090E00E94F10AFC01892B09F4FFCF408259
:100C50005182628273822482358289819A8186835D
:100C6000978300871187E286C386D486A586868609
:100C700097868D89808B8E89818BCF010F900F9005
:100C8000DF91CF911F910F91EF90DF90CF90AF90B8
:100C90009F908F907F906F905F904F903F902F909C
:100CA00008950C94890B2F923F924F925F926F920E
:100CB0007F928F92AF92BF92CF92DF92EF92FF928C
:100CC0000F931F93CF93DF93CDB7DEB72C01162F71
:100CD0003A01190183E190E00E94F10AFC01892B9D
:100CE00009F4FFCF4082518212836382748225828D
:100CF00036820783E086F186C286D386A486B586CF
:100D000086868C8987878D89808B8E899F89818B48
:100D1000928BCF01DF91CF911F910F91FF90EF90B8
:100D2000DF90CF90BF90AF908F907F906F905F904B
:100D30004F903F902F9008950C94890B2F923F92E3
:100D40004F925F926F927F928F929F92AF92BF92DB
:100D5000CF92DF92EF920F93CF93DF93CDB7DEB7B1
:100D60002C013B014A01190182E190E00E94F10A45
:100D7000FC01892B09F4FFCF408251826282738289
:100D800084829582268237820087E186C286D38656
:100D9000A486B5868B899C89AD89BE89868797870D
:100DA000A08BB18BCF01DF91CF910F91EF90DF90AE
:100DB000CF90BF90AF909F908F907F906F905F90FB
:100DC0004F903F902F9008950C94890B8F929F9293
:100DD000AF92BF92CF92DF92EF92FF920F931F9349
:100DE000CF93DF93EC016A017B014801590182E254
:100DF00090E00E94F10AFC01892B09F4FFCF1282D6
:100E000013821482158280E090E0AFE7B3E4828B16
:100E1000938BA48BB58B86829782A086B186C6867B
:100E2000D786E08AF18AC083D183CF01DF91CF9149
:100E30001F910F91FF90EF90DF90CF90BF90AF90F8
:100E40009F908F9008950C94890BCF93DF93FC01B2
:100E5000C081D181A881B9818C919885982B9C9370
:100E6000A081B1811296ED91FC9113979081199612
:100E70008C91809589238083DF91CF910895CF93C2
:100E8000DF93DC01ED91FC9111970484F585E02D51
:100E9000C081D18182818883ED91FC911197048476
:100EA000F585E02DC381D481978188818923E9F775
:100EB000C085D1858285938588839983C485D585AE
:100EC00098818685892B8883ED91FC910484F58532
:100ED000E02DA381B48197818C918923E9F7A581C5
:100EE000B68197858089892B8C93DF91CF91089566
:100EF000CF93DF93DC01ED91FC9111970284F38590
:100F0000E02DC081D1818281938188839983C481BE
:100F1000D5818681978188839983C085D185988181
:100F20008285892B8883ED91FC911197C285D385A9
:100F3000EB85FC8590818D85892B8083ED91FC91DB
:100F4000A285B3851E96ED91FC911F9790815096D6
:100F50008C91892B8083DF91CF910895DC01ED91F5
:100F6000FC91A285B3851896ED91FC91199790811B
:100F700051968C91892B80830895DC01ED91FC9131
:100F8000A285B3851896ED91FC91199790815196A1
:100F90008C918095892380830895FC0112821382AD
:100FA000148215821286138614861586128A138A75
:100FB000148A158A0895DC01ED91FC91119704843F
:100FC000F585E02D0188F289E02D2081318112968E
:100FD0002D933C9313970895DC01ED91FC911197AB
:100FE0000484F585E02D0188F289E02D208131818E
:100FF00014962D933C9315970895FC01A081B1811F
:101000001496ED91FC911597908118968C91892BEF
:1010100080830895FC01A081B1811496ED91FC912B
:101020001597908118968C918095892380830895D7
:10103000CF93DF93EC01E881F981A681B781918597
:101040008C918923E9F3CE010E94DB07E881F981C5
:10105000A681B78191858C918923E9F7CE01DF9133
:10106000CF910C94EC07CF93DF93EC016C817D81E1
:101070008A819B81681B790B80E090E00E94CD09FA
:101080002E853F85488959890E94840A6A877B8713
:101090008C879D872E813F81488559850E94840ACF
:1010A00020E030E040E05FE30E94840A6A8B7B8BA3
:1010B0008C8B9D8BDF91CF91089578940E945B007B
:1010C0000E94380180912438909125380E94DC04D8
:1010D00080912438909125380E941F0580911838FE
:1010E000909119380E9440048091183890911938D5
:1010F0000E94010480911C3890911D380E942507A0
:1011000080911C3890911D380E943F0780911C38B7
:1011100090911D380E94780780EF9DE90E945F053D
:10112000FFCFA1E21A2EAA1BBB1BFD010DC0AA1FF7
:10113000BB1FEE1FFF1FA217B307E407F50720F040
:10114000A21BB30BE40BF50B661F771F881F991FBB
:101150001A9469F760957095809590959B01AC0104
:10116000BD01CF0108955058BB27AA270E94CB0884
:101170000C94450A0E94370A38F00E943E0A20F07B
:1011800039F49F3F19F426F40C94340A0EF4E095D8
:10119000E7FB0C942E0AE92F0E94560A58F3BA175F
:1011A000620773078407950720F079F4A6F50C947D
:1011B000780A0EF4E0950B2EBA2FA02D0B01B90181
:1011C00090010C01CA01A0011124FF27591B99F0BD
:1011D000593F50F4503E68F11A16F040A22F232FC9
:1011E000342F4427585FF3CF469537952795A79519
:1011F000F0405395C9F77EF41F16BA0B620B730BC0
:10120000840BBAF09150A1F0FF0FBB1F661F771F30
:10121000881FC2F70EC0BA0F621F731F841F48F4E5
:10122000879577956795B795F7959E3F08F0B0CF6E
:101230009395880F08F09927EE0F97958795089555
:101240000E940A0A08F481E008950E9439090C946A
:10125000450A0E943E0A58F00E94370A40F029F4DD
:101260005F3F29F00C942E0A51110C94790A0C94CA
:10127000340A0E94560A68F39923B1F3552391F377
:10128000951B550BBB27AA2762177307840738F0F5
:101290009F5F5F4F220F331F441FAA1FA9F335D052
:1012A0000E2E3AF0E0E832D091505040E695001C06
:1012B000CAF72BD0FE2F29D0660F771F881FBB1FC0
:1012C000261737074807AB07B0E809F0BB0B802D9E
:1012D000BF01FF2793585F4F3AF09E3F510578F0CA
:1012E0000C942E0A0C94790A5F3FE4F3983ED4F3F1
:1012F000869577956795B795F7959F5FC9F7880F9E
:10130000911D9695879597F90895E1E0660F771FEF
:10131000881FBB1F621773078407BA0720F0621B80
:10132000730B840BBA0BEE1F88F7E09508950E94AB
:101330009E096894B1110C94790A08950E945E0A7E
:1013400088F09F5798F0B92F9927B751B0F0E1F086
:10135000660F771F881F991F1AF0BA95C9F714C036
:10136000B13091F00E94780AB1E008950C94780AA7
:10137000672F782F8827B85F39F0B93FCCF386956F
:1013800077956795B395D9F73EF4909580957095CC
:1013900061957F4F8F4F9F4F0895E89409C097FB49
:1013A0003EF490958095709561957F4F8F4F9F4F3C
:1013B0009923A9F0F92F96E9BB279395F695879580
:1013C00077956795B795F111F8CFFAF4BB0F11F443
:1013D00060FF1BC06F5F7F4F8F4F9F4F16C08823EA
:1013E00011F096E911C0772321F09EE8872F762F20
:1013F00005C0662371F096E8862F70E060E02AF061
:101400009A95660F771F881FDAF7880F969587954C
:1014100097F90895990F0008550FAA0BE0E8FEEF21
:1014200016161706E807F907C0F012161306E407A8
:10143000F50798F0621B730B840B950B39F40A26A1
:1014400061F0232B242B252B21F408950A2609F47F
:10145000A140A6958FEF811D811D089597F99F6783
:1014600080E870E060E008959FEF80EC089500242C
:101470000A941616170618060906089500240A94F9
:1014800012161306140605060895092E0394000C7F
:1014900011F4882352F0BB0F40F4BF2B11F460FF0E
:1014A00004C06F5F7F4F8F4F9F4F089557FD905837
:1014B000440F551F59F05F3F71F04795880F97FB18
:1014C000991F61F09F3F79F08795089512161306D2
:1014D0001406551FF2CF4695F1DF08C01616170601
:1014E0001806991FF1CF8695710561050894089536
:1014F000E894BB2766277727CB0197F908950E94C8
:101500000A0A08F48FEF08950E94970A0C94450A7E
:101510000E94370A38F00E943E0A20F0952311F00D
:101520000C942E0A0C94340A11240C94790A0E940B
:10153000560A70F3959FC1F3950F50E0551F629FB7
:10154000F001729FBB27F00DB11D639FAA27F00D1C
:10155000B11DAA1F649F6627B00DA11D661F829F43
:101560002227B00DA11D621F739FB00DA11D621F28
:10157000839FA00D611D221F749F3327A00D611D45
:10158000231F849F600D211D822F762F6A2F112427
:101590009F5750409AF0F1F088234AF0EE0FFF1F5A
:1015A000BB1F661F771F881F91505040A9F79E3FB1
:1015B000510580F00C942E0A0C94790A5F3FE4F3F5
:1015C000983ED4F3869577956795B795F795E79507
:1015D0009F5FC1F7FE2B880F911D9695879597F910
:1015E00008950F931F93CF93DF938230910510F4EA
:1015F00082E090E0E0912A38F0912B3820E030E052
:10160000A0E0B0E0309719F140815181028113814F
:1016100048175907C8F08417950769F4109731F0F7
:1016200012960C93129713961C9327C000932A3896
:1016300010932B3822C02115310519F0421753079A
:1016400018F49A01BD01EF01DF01F801DBCF21158C
:101650003105F9F0281B390B2430310580F48A81DB
:101660009B816115710521F0FB018283938304C086
:1016700080932A3890932B38FE01329644C0FE01A5
:10168000E20FF31F8193919322503109288339830C
:101690003AC02091283830912938232B41F42091E9
:1016A0001038309111382093283830932938209100
:1016B0000E3830910F382115310541F42DB73EB762
:1016C0004091123850911338241B350BE091283883
:1016D000F0912938E217F307A0F42E1B3F0B2817CF
:1016E000390778F0AC014E5F5F4F2417350748F09B
:1016F0004E0F5F1F40932838509329388193919360
:1017000002C0E0E0F0E0CF01DF91CF911F910F9197
:101710000895CF93DF93009709F481C0FC013297BD
:1017200012821382A0912A38B0912B38109781F43D
:1017300020813181820F931F2091283830912938E0
:101740002817390751F5E0932838F093293867C0F6
:10175000ED0120E030E0CE17DF0740F44A815B81E5
:101760009E0141155105F1F0EA01F5CFC283D38303
:1017700040815181840F951FC817D90759F488817A
:101780009981840F951F0296808391838A819B8122
:10179000828393832115310529F4E0932A38F0934D
:1017A0002B383DC0E901EA83FB8349915991C40F6D
:1017B000D51FEC17FD0761F480819181840F951F7F
:1017C0000296E90188839983828193818A839B832E
:1017D000E0E0F0E012968D919C911397009719F03C
:1017E000FD01DC01F7CF8D919C9111979D012E5F3A
:1017F0003F4F820F931F20912838309129382817A6
:10180000390769F4309729F410922A3810922B384E
:1018100002C012821382A0932838B0932938DF9136
:10182000CF910895AEE0B0E0E8E1FCE00C94D30E77
:101830000D891E8986E08C8309831A838FEF9FE7C9
:101840008D839E83AE01475E5F4F6F89788DCE0199
:1018500001960E94340CEF81F885E00FF11F108291
:101860002E96E4E00C94EC0EABE0B0E0EAE3FCE092
:101870000C94C50E6C017B018A01FC011682178253
:10188000838181FFCCC1CE0101963C01F601938199
:10189000F70193FD859193FF81917F01882309F4DE
:1018A000BAC1853239F493FD859193FF81917F010F
:1018B000853229F4B60190E00E942B0EE7CF912CDF
:1018C000212C312CFFE1F315D8F08B3279F038F46C
:1018D000803279F08332A1F4232D20611DC08D3236
:1018E00061F0803369F4232D216016C0832D82605E
:1018F000382EE32DE4603E2E2AC0F32DF8601DC083
:1019000037FC2DC020ED280F2A3040F08E32B9F47C
:1019100036FC81C1232D2064322E19C036FE06C04C
:101920008AE0989E200D1124922E11C0EAE02E9E8E
:10193000200D1124222EF32DF0623F2E08C08C368C
:1019400021F4832D8068382E02C0883641F4F701D7
:1019500093FD859193FF81917F018111B3CF982FE2
:101960009F7D9554933028F40C5F1F4F9FE399831C
:101970000DC0833631F0833771F0833509F059C0DB
:1019800021C0F801808189830E5F1F4F88248394D2
:10199000912C530113C02801F2E04F0E511CF801A5
:1019A000A080B18036FE03C0692D70E002C06FEFE9
:1019B0007FEFC5010E94200E4C018201F32DFF77BD
:1019C0003F2E16C0280122E0420E511CF801A080D3
:1019D000B18036FE03C0692D70E002C06FEF7FEF6B
:1019E000C5010E94150E4C01F32DF0683F2E8201B7
:1019F00033FC1BC0822D90E088169906B0F4B60126
:101A000080E290E00E942B0E2A94F4CFF50137FC7F
:101A1000859137FE81915F01B60190E00E942B0E07
:101A200021102A9421E0821A91088114910471F7FF
:101A3000E8C0843611F0893641F5F80137FE07C059
:101A400060817181828193810C5F1F4F08C060812A
:101A50007181072E000C880B990B0E5F1F4FF32D21
:101A6000FF763F2E97FF09C0909580957095619500
:101A70007F4F8F4F9F4FF0683F2E2AE030E0A30149
:101A80000E94670E882E861845C0853731F4232DB5
:101A90002F7EB22E2AE030E025C0932D997FB92EFB
:101AA0008F36C1F018F4883579F0B5C0803719F059
:101AB000883721F0B0C0E92FE061BE2EB4FE0DC022
:101AC000FB2DF460BF2E09C034FE0AC0292F26600A
:101AD000B22E06C028E030E005C020E130E002C0B0
:101AE00020E132E0F801B7FE07C060817181828198
:101AF00093810C5F1F4F06C06081718180E090E090
:101B00000E5F1F4FA3010E94670E882E8618FB2DC3
:101B1000FF773F2E36FE0DC0232D2E7FA22E891477
:101B200058F434FE0BC032FC09C0832D8E7EA82EE3
:101B300005C0B82CA32C03C0B82C01C0B92CA4FE3E
:101B40000FC0FE01E80DF11D8081803321F49A2D34
:101B5000997EA92E09C0A2FE06C0B394B39404C016
:101B60008A2D867809F0B394A3FC11C0A0FE06C0AC
:101B7000B21488F4280C922C9B180EC0B21460F496
:101B8000B60180E290E00E942B0EB394F7CFB2141E
:101B900018F42B1802C0982C212CA4FE10C0B601FA
:101BA00080E390E00E942B0EA2FE17C0A1FC03C0B0
:101BB00088E790E002C088E590E0B6010CC08A2D6D
:101BC000867859F0A1FE02C08BE201C080E2A7FC3A
:101BD0008DE2B60190E00E942B0E891438F4B60114
:101BE00080E390E00E942B0E9A94F7CF8A94F30141
:101BF000E80DF11D8081B60190E00E942B0E81104E
:101C0000F5CF222009F442CEB60180E290E00E9496
:101C10002B0E2A94F6CFF6018681978102C08FEFB2
:101C20009FEF2B96E2E10C94DE0EFC0105906150D3
:101C300070400110D8F7809590958E0F9F1F0895E2
:101C4000FC016150704001900110D8F7809590958B
:101C50008E0F9F1F08950F931F93CF93DF93FB0168
:101C6000238121FD03C08FEF9FEF2CC022FF16C000
:101C700046815781248135814217530744F4A0815E
:101C8000B1819D012F5F3F4F208331838C9326814B
:101C900037812F5F3F4F2683378314C08B01EC01C0
:101CA000FB010084F185E02D0995892BE1F6D8012F
:101CB00016968D919C911797019616968D939C93ED
:101CC0001797CE01DF91CF911F910F910895FA01DF
:101CD000AA27283051F1203181F1E8946F936E7F6B
:101CE0006E5F7F4F8F4F9F4FAF4FB1E03ED0B4E05C
:101CF0003CD0670F781F891F9A1FA11D680F791F9D
:101D00008A1F911DA11D6A0F711D811D911DA11DAD
:101D100020D009F468943F912AE0269F11243019BD
:101D2000305D3193DEF6CF010895462F4770405D58
:101D30004193B3E00FD0C9F7F6CF462F4F70405D07
:101D40004A3318F0495D31FD4052419302D0A9F762
:101D5000EACFB4E0A6959795879577956795BA955C
:101D6000C9F700976105710508959B01AC010A2E22
:101D700006945795479537952795BA95C9F7620FF9
:101D8000731F841F951FA01D08952F923F924F929D
:101D90005F926F927F928F929F92AF92BF92CF92FB
:101DA000DF92EF92FF920F931F93CF93DF93CDB704
:101DB000DEB7CA1BDB0BCDBFDEBF09942A8839888A
:101DC00048885F846E847D848C849B84AA84B984D3
:101DD000C884DF80EE80FD800C811B81AA81B981DF
:101DE000CE0FD11DCDBFDEBFED010895F894FFCF1A
:101DF000536574757020636F6D706C6574650A004F
:101E00004953523A3A5443423A3A44697374616EC0
:101E100063653A2000636D0A004953523A3A5254BE
:101E2000433A3A436C65617220466C6167730A00FD
:101E30004953523A3A5254433A3A4D6F76650A0042
:101E40004953523A3A5254433A3A4C6F6F6B0A0034
:101E50004953523A3A5254433A3A44656369646585
:101E60000A004953523A3A5254433A3A4C6566741E
:101E70003A20004953523A3A5254433A3A52696727
:101E800068743A20004953523A3A5254433A3A431A
:101E90006F756E743A200025750025642E2530324A
:021EA0006400DC
:101EA20000000002000000005A04000000000000D0
:041EB20032382000A2
:00000001FF
